:100000000C942A001895000018950000189500001F
:10001000189500000C94DC0A189500001895000053
:100020001895000018950000189500000C94080D14
:10003000189500000C94E114189500001895000024
:1000400018950000189500001895000018950000FC
:10005000189500008FE58DBFC0E2E8E74E2E88E0DE
:100060008EBFD8E0F7E05F2EA89584B7082E877F73
:1000700084BF88E1992781BD91BDEEEFF7E0A0E64E
:10008000B0E088278D933197E9F783E389B980E061
:1000900080BD88E18AB96624579A87E886B980E0EE
:1000A00087B9379A84E083BF87E085BDA69A8B9A8B
:1000B0008C9A8E9A8F9A8D9AA49AA79ABB9ABC9A78
:1000C0000E940711BA9A80E080937B01939A979AD5
:1000D000949AAFEAB1E0E6EAFCE20E94D514A8E9FE
:1000E000B1E0E6EAFCE20E94D514ACE9B1E0E6EA50
:1000F000FCE20E94D514A3EBB1E0E6EAFCE20E9428
:10010000D514AF9A81E08093A401ACE3B2E0EAEAAF
:10011000FCE20E94D51485E090E0A5EAB1E08D9361
:100120009C930E94DE0DE1E0F0E0A7EAB1E094E0EC
:100130000E94DF15E7EAF1E00E947B12E6EAFCE2AA
:100140000E94E3130E94EC1381E008F080E08F939B
:10015000E7EAF1E00E947B12EEEAFCE20E94E31380
:100160000E94EC1380E010F009F081E09F91892B50
:10017000882311F40C94C200A7EAB1E0E2EBFCE2A0
:100180000E94D514EAE0F0E0ABEAB1E094E00E940E
:10019000DF15EBEAF1E00E947B12E6EAFCE20E9446
:1001A000E3130E94EC1381E008F080E08F93EBEA08
:1001B000F1E00E947B12E6EBFCE20E94E3130E9456
:1001C000EC1380E010F009F081E09F91892B8823E7
:1001D00011F40C94F100ABEAB1E0EAEBFCE20E940E
:1001E000D51480E090E0AAE8B1E08D939C9380E084
:1001F00090E0ACE8B1E08D939C9380E08093960111
:10020000A3ECB1E0E6EAFCE20E94D514A7ECB1E071
:10021000E6EAFCE20E94D5147091CD017F777093DD
:10022000CD0180E08093CB0180E08093CC0179B751
:10023000716079BF79B7706479BF789484E083BFC7
:1002400087E085BDE8E9F1E00E947B12EEEBFCE27D
:100250000E94E3130E94EC1318F011F00C94320189
:100260000C945101A6E9B1E08C9181608C933FB66A
:10027000F89480E090E0D2018D939C9382E00E94FC
:10028000261281E0D2018C9381E00E9426120E9406
:100290008B0D249683E00E9417129698AE980C94CA
:1002A000620181E080939701A7E9B1E08C9180958C
:1002B0008C9300919601409197010423A6E9B1E047
:1002C0000C93969AAEE8B1E00D911C91003050E08D
:1002D000150711F00C94BF01EEEAFCE20E94E31353
:1002E000E4E3F2E00E947B120E948813EDE0F0E06C
:1002F000A8E3B2E00E94B015E8E3F2E00E947B12AE
:10030000E2ECFCE20E94E3130E94EC1318F011F0FF
:100310000C948C010C949201A8E3B2E0E2ECFCE2B4
:100320000E94D514EFEAF1E00E947B12E8E3F2E0CC
:100330000E9480120E94EC1318F011F00C94A2019C
:100340000C94BF013FB6F89480E090E0D2018D9309
:100350009C9382E00E94261281E0D2018C9381E07E
:100360000E9426120E948B0D249683E00E94171291
:10037000A6E9B1E08C9182608C939798AE98E4E303
:10038000F2E00E948012E8E9F1E00E947B120E94F4
:100390004713EDE0F0E0ADE4B2E00E94B015EAEA08
:1003A000FCE20E94E313EDE4F2E00E947B120E9463
:1003B000F112EDE0F0E0ADE4B2E00E94B015EDE442
:1003C000F2E00E947B12E6ECFCE20E94E3130E9442
:1003D000EC1318F011F00C94EF010C940C023FB6E2
:1003E000F89480E090E0D2018D939C9382E00E948B
:1003F000261281E0D2018C9381E00E9426120E9495
:100400008B0D249683E00E941712A6E9B1E08C912F
:1004100088608C939498AE98AE990C947402E8E935
:10042000F1E00E947B12EAECFCE20E94E3130E94DE
:10043000EC1310F00C942402ACE3B2E0E2ECFCE22A
:100440000E94D5140C944402E8E9F1E00E94801265
:10045000E6ECFCE20E94DA130E94F112EDE0F0E01B
:10046000ACE3B2E00E94B015EAEAFCE20E94E313BA
:10047000ECE3F2E00E947B120E944713EDE0F0E013
:10048000ACE3B2E00E94B015ECE3F2E00E9480120F
:10049000E8E9F1E00E947B120E94F112EDE0F0E049
:1004A000ACE2B2E00E94B015EAEAFCE20E94E3137B
:1004B000ECE2F2E00E947B120E944713EDE0F0E0D4
:1004C000ACE2B2E00E94B015EEEAFCE20E94E31357
:1004D000ECE2F2E00E947B120E944713EDE0F0E0B4
:1004E000A0E3B2E00E94B015ADECB1E08C9187FBC7
:1004F00016F00C94660481E0809327020091270295
:10050000043118F011F00C94C902EBEAF1E00E94FA
:100510008012E7E2F2E0A190BB24ECECF1E0AA0C3F
:10052000BB1CEA0DFB1DD190E080FF2400270E9438
:100530009F120E944713EDE0F0E0ABEBB1E00E94A8
:10054000B015EBEBF1E00E948012EBEBF1E00E94C2
:100550007B120E944713EDE0F0E0ABEBB1E00E94AC
:10056000B015EBEBF1E00E948012E3ECF1E00E94A9
:100570007B120E948813EDE0F0E0A3ECB1E00E9452
:10058000B015A7E2B2E08C918F5F8C9310F40C94BD
:100590007E023FB6F894A0EAB1E0BA93AA93A3EC26
:1005A000B1E0BA93AA930E94B20A249681E08093A4
:1005B000270200912702043118F011F00C94240353
:1005C000E7EAF1E00E948012E7E2F2E0A190BB24AA
:1005D000E8EFF1E0AA0CBB1CEA0DFB1DD190E08016
:1005E000FF2400270E949F120E944713EDE0F0E0D5
:1005F000AFEBB1E00E94B015EFEBF1E00E9480128A
:10060000EFEBF1E00E947B120E944713EDE0F0E077
:10061000AFEBB1E00E94B015EFEBF1E00E94801269
:10062000E7ECF1E00E947B120E948813EDE0F0E01D
:10063000A7ECB1E00E94B015A7E2B2E08C918F5F09
:100640008C9310F40C94D90200912602013011F021
:100650000C948103E6E2FDE20E94EC1081E08093BD
:10066000270200912702043118F011F00C94540372
:10067000A0E6B7E0E7E2F2E0A190BB24ECECF1E009
:10068000AA0CBB1CEA0DFB1D0E9425150E94E4105C
:10069000E8E2FDE20E94EC10A7E2B2E08C918F5FED
:1006A0008C9310F40C9431030E94F31081E080933A
:1006B000270200912702043118F011F00C947C03FA
:1006C000A0E6B7E0E7E2F2E0A190BB24E8EFF1E0BA
:1006D000AA0CBB1CEA0DFB1D0E9425150E94E4100C
:1006E000E8E2FDE20E94EC10A7E2B2E08C918F5F9D
:1006F0008C9310F40C9459030E94F31080E08093C3
:1007000026023FB6F894A7EBB1E0BA93AA93A7EC00
:10071000B1E0BA93AA930E94B20A2496E0EAF1E00B
:100720000E948012ECE9F1E00E947B120E94881383
:10073000EDE0F0E0ACE9B1E00E94B015E7EBF1E0EC
:100740000E948012E3EBF1E00E947B120E9488136A
:10075000EDE0F0E0A3EBB1E00E94B015A3ECB1E056
:10076000E6EAFCE20E94D514A7ECB1E0E6EAFCE27E
:100770000E94D5147091CD017F777093CD0187E0F1
:1007800085BDACECB1E08C918F5F8C930091CC0176
:100790000A3010F40C94660480E08093CC01EEECF7
:1007A000FCE20E94E313ECE9F1E00E947B120E945C
:1007B000F112EDE0F0E0A8E9B1E00E94B015EEEC36
:1007C000FCE20E94E313E3EBF1E00E947B120E9443
:1007D000F112EDE0F0E0AFEAB1E00E94B015ACE953
:1007E000B1E0E6EAFCE20E94D514A3EBB1E0E6EA50
:1007F000FCE20E94D5140091A401013011F00C9488
:100800002404EEECFCE20E94E313E8E9F1E00E942C
:100810007B120E944713EDE0F0E0A8E9B1E00E94EE
:10082000B015E8E9F1E00E947B12E2EDFCE20E94E3
:10083000E3130E94EC1310F00C94220480E08093E8
:10084000A401AF980C943804E8E9F1E00E947B120F
:10085000E2EDFCE20E94E3130E94EC1318F011F0A9
:100860000C9434040C94380481E08093A401AF9A72
:1008700000919601003081E009F080E08F93A5E3BC
:10088000B0E00C9106FB81E00EF080E09F9189239F
:10089000882311F40C9450040E94620B0C9466049B
:1008A0003FB6F89480E090E0D2018D939C9382E073
:1008B0000E94261281E0D2018C9381E00E942612D0
:1008C0000E948B0D249683E00E941712AAE8B1E0E3
:1008D0000D911C91043F51E0150710F40C94BB05D9
:1008E00080E090E0AAE8B1E08D939C933FB6F89445
:1008F000A9E4B2E0BA93AA93A7E4B2E08D919C91E7
:10090000D2018D939C9382E00E9426120E94AE0930
:10091000249682E00E941712E9E4F2E00E947B1222
:10092000E6EDFCE20E94E3130E94EC1381E008F084
:1009300080E08F93A0E9B1E00D911C91003050E070
:10094000150781E009F080E09F918923882311F445
:100950000C94AB04AC98E9E4F2E00E947B12EAED5F
:10096000FCE20E94E3130E94EC1318F011F00C94C7
:10097000BB040C94BC04AC9AEDE4F2E00E947B1240
:10098000EEEAFCE20E94E3130E94EC1318F011F06F
:100990000C94CC040C94D304AC9A80E197E2A0E9C7
:1009A000B1E08D939C93E9E4F2E00E947B12EEEDBE
:1009B000FCE20E94E3130E94EC1318F011F00C9477
:1009C000E3040C9402053FB6F89480E090E0D20175
:1009D0008D939C9382E00E94261281E0D2018C9339
:1009E00081E00E9426120E948B0D249683E00E94D3
:1009F0001712A6E9B1E08C9184608C939598AE981B
:100A00000C942005E9E4F2E00E947B12E2EEFCE2A5
:100A10000E94E3130E94EC1310F00C94200584E074
:100A200080939701A7E9B1E08C9180958C93009118
:100A30009601409197010423A6E9B1E00C93959AA1
:100A40003FB6F894E8E9F1E0D2010E94B01584E0E5
:100A50000E942612EFEAF1E0D2010E94B01584E074
:100A60000E9426120E94CE0E249688E00E94171241
:100A700000917B01003011F00C94BB05B0990C94EF
:100A8000460582E0809346020C94490581E08093FC
:100A90004602B1990C94550500919601003011F071
:100AA0000C945305AE9A0C94BB053FB6F89480E0C5
:100AB00090E0D2018D939C9382E00E94261281E007
:100AC000D2018C9381E00E9426120E948B0D249605
:100AD00083E00E941712AE980091960142E0042331
:100AE000A7E9B1E00C9300919701003018F011F0E4
:100AF0000C947C050C948D0582E080939701A7E906
:100B0000B1E08C9180958C93009196014091970172
:100B10000423A6E9B1E00C93979A0091960148E06E
:100B20000423A7E9B1E00C9300919701003018F07D
:100B300011F00C949D050C94BB05EDE4F2E00E94CD
:100B40007B12E6ECFCE20E94E3130E94EC1310F02F
:100B50000C94BB0588E080939701A7E9B1E08C91E4
:100B600080958C9300919601409197010423A6E90A
:100B7000B1E00C93949A00917B01003011F00C9439
:100B80005A06A4E9B1E04D915C91A2E9B1E00D9162
:100B90001C910417150711F40C945A060091460293
:100BA000013011F00C940206E6EEFCE20E94E31321
:100BB000E2E9F1E0D190E080FF2400270E949F123B
:100BC0000E94F112EDE0F0E0A4E3B2E00E94B01563
:100BD000ECE3F2E00E948012E4E3F2E00E947B1278
:100BE0000E944713EDE0F0E0A4E3B2E00E94B015EC
:100BF000A2E9B1E08D919C91A4E9B1E08D939C9321
:100C00000C944E06E6EEFCE20E94E313E2E9F1E00A
:100C1000D190E080FF2400270E949F120E94F112D1
:100C2000EDE0F0E0A8E2B2E00E94B015E0E3F2E00F
:100C30000E948012E8E2F2E00E947B120E944713B9
:100C4000EDE0F0E0A8E2B2E00E94B015E8E2F2E0E8
:100C50000E948012E0E3F2E00E947B120E9479136E
:100C6000EDE0F0E0A8E2B2E00E94B015ECE2F2E0C4
:100C70000E948012E8E2F2E00E947B120E94881338
:100C8000EDE0F0E0A8E2B2E00E94B015A2E9B1E028
:100C90008D919C91A4E9B1E08D939C9379B77E7F6F
:100CA00079BF88EE93E0AEE8B1E08D939C9379B77D
:100CB000716079BF0E94BA10082F003018F011F04F
:100CC0000C9464060C94AC090E94C010A7E7B1E034
:100CD0008C93009177010A3011F00C949A0981E00D
:100CE000E2E6F1E001E00A93A8E7B1E00E94B61560
:100CF000A2E6B1E00E94F615AAE7B1E08C9300915C
:100D00007A01013018F011F00C9488060C949206C8
:100D100082E0E2E6F1E000917A010A93ADE7B1E00A
:100D20000E94B615A8E7B1E0EAE2FDE20E94FC15D8
:100D300011F00C94A306ECE2FDE20E94EC100E947C
:100D4000F3100C949409EEE3FDE20E94FC1511F0FF
:100D50000C94BF06ADE7B1E0E0E4FDE20E94FC15B3
:100D600011F00C94B90681E080937B0193980C9468
:100D7000BD0680E080937B01939A0C949409E2E491
:100D8000FDE20E94FC1511F00C94D806E2E4FDE2AD
:100D90000E94EC10A0E6B7E0E8E9F1E00E947B12C7
:100DA0000E941F110E94E4100E94F3100C949409F9
:100DB000E4E4FDE20E94FC1511F00C94F106E4E479
:100DC000FDE20E94EC10A0E6B7E0EFEAF1E00E943D
:100DD0007B120E941F110E94E4100E94F3100C94D9
:100DE0009409E6E4FDE20E94FC1511F00C940A0758
:100DF000E6E4FDE20E94EC10A0E6B7E0E4E3F2E0F6
:100E00000E947B120E941F110E94E4100E94F310A6
:100E10000C949409E8E4FDE20E94FC1511F00C9496
:100E2000470700917B01013011F00C944507ECE37A
:100E3000F2E00E943D12A4E4B2E0DD92EC92ADE754
:100E4000B1E00E947E15A4E4B2E04D915C9166276A
:100E500077270E9412150CF402C00C944507ADE7E9
:100E6000B1E00E940214EDE0F0E0A4E3B2E00E94E1
:100E7000B01579B77E7F79BF88EE93E0AEE8B1E038
:100E80008D939C9379B7716079BF0C949409EAE4CF
:100E9000FDE20E94FC1511F00C945E07EAE4FDE20D
:100EA0000E94EC10A0E6B7E0E6E9F1E00E943415FC
:100EB0000E94E4100E94F3100C949409ECE4FDE20B
:100EC0000E94FC1511F00C947707ECE4FDE20E94FF
:100ED000EC10A0E6B7E0E9E4F2E00E947B120E9489
:100EE0001F110E94E4100E94F3100C949409EEE488
:100EF000FDE20E94FC1511F00C94970700917B0114
:100F0000013011F00C949507ADE7B1E0E0E4FDE2AB
:100F10000E94FC1511F00C94920782E08093460227
:100F20000C94950781E0809346020C949409E0E5C7
:100F3000FDE20E94FC1511F00C941E0800917B014B
:100F4000013011F00C941C08ADE7B1E0E0E4FDE2E3
:100F50000E94FC1511F00C94B60700919601003028
:100F600011F00C94B407AE9A0C941C083FB6F89498
:100F700080E090E0D2018D939C9382E00E94261243
:100F800081E0D2018C9381E00E9426120E948B0D99
:100F9000249683E00E941712AE980091960142E0D9
:100FA0000423A7E9B1E00C9300919701003018F0F9
:100FB00011F00C94DD070C94EE0782E0809397010A
:100FC000A7E9B1E08C9180958C93009196014091B6
:100FD00097010423A6E9B1E00C93979A009196013A
:100FE00048E00423A7E9B1E00C9300919701003099
:100FF00018F011F00C94FE070C941C08EDE4F2E0DC
:101000000E947B12E6ECFCE20E94E3130E94EC13C8
:1010100010F00C941C0888E080939701A7E9B1E0D8
:101020008C9180958C9300919601409197010423B7
:10103000A6E9B1E00C93949A0C949409E2E5FDE2E0
:101040000E94FC1511F00C943A08E2E5FDE20E94C2
:10105000EC10A5E3B0E08C9186FBA0E6B7E00E941F
:10106000DD148D9388278C930E94E4100E94F31066
:101070000C949409E4E5FDE20E94FC1511F00C9437
:101080005108E4E5FDE20E94EC10A0E6B7E0E6E4DA
:10109000F2E00E9434150E94E4100E94F3100C94B8
:1010A0009409E6E5FDE20E94FC1511F00C946A0833
:1010B000E6E5FDE20E94EC10A0E6B7E0EDE4F2E028
:1010C0000E947B120E941F110E94E4100E94F310E4
:1010D0000C949409E8E5FDE20E94FC1511F00C94D3
:1010E0008308E8E5FDE20E94EC10A0E6B7E0ECE33F
:1010F000F2E00E947B120E941F110E94E4100E94E5
:10110000F3100C949409EAE5FDE20E94FC1511F03D
:101110000C949A08EAE5FDE20E94EC10A0E6B7E024
:10112000EBE7F1E00E9434150E94E4100E94F310F6
:101130000C949409ECE5FDE20E94FC1511F00C946E
:10114000B508ADE7B1E00E940214EDE0F0E0A7EAD7
:10115000B1E00E94B015E1E0F0E0A7EAB1E094E070
:101160007BE70E94CE150C949409EEE5FDE20E9407
:10117000FC1511F00C94CE08EEE5FDE20E94EC1097
:10118000A0E6B7E0E7EAF1E00E947B120E941F119F
:101190000E94E4100E94F3100C949409E0E6FDE232
:1011A0000E94FC1511F00C94E908ADE7B1E00E9433
:1011B0000214EDE0F0E0ABEAB1E00E94B015EAE025
:1011C000F0E0ABEAB1E094E07BE70E94CE150C942E
:1011D0009409E2E6FDE20E94FC1511F00C9402096C
:1011E000E2E6FDE20E94EC10A0E6B7E0EBEAF1E0F7
:1011F0000E947B120E941F110E94E4100E94F310B3
:101200000C949409E6E2FDE20E94FC1511F00C94A6
:101210000E0981E0809326020C949409E4E6FDE235
:101220000E94FC1511F00C942709E4E6FDE20E94EF
:10123000EC10A0E6B7E0ECE2F2E00E947B120E9424
:101240001F110E94E4100E94F3100C949409E6E62A
:10125000FDE20E94FC1511F00C944009E6E6FDE267
:101260000E94EC10A0E6B7E0E0E3F2E00E947B12FF
:101270000E941F110E94E4100E94F3100C94940924
:10128000E8E6FDE20E94FC1511F00C947D09009146
:101290007B01013011F00C947B09ECE2F2E00E943A
:1012A0003D12A4E4B2E0DD92EC92ADE7B1E00E9421
:1012B0007E15A4E4B2E04D915C91662777270E94E9
:1012C00012150CF002C00C947B09ADE7B1E00E944E
:1012D0000214EDE0F0E0A8E2B2E00E94B01579B7A8
:1012E0007E7F79BF88EE93E0AEE8B1E08D939C936A
:1012F00079B7716079BF0C949409EAE6FDE20E9427
:10130000FC1511F00C949409EAE6FDE20E94EC1041
:10131000A0E6B7E0E8E2F2E00E947B120E941F1113
:101320000E94E4100E94F310A2E6B1E088278C939B
:101330000C94AA09009177010D3011F40C94AA09BC
:10134000A7E7B1E08C91A2E6B1E00E94B3108D93C3
:1013500088278C930C945A060C9422013FBE84E09B
:101360000E942012AA81BB810D911C910E3651E082
:10137000150710F40C94F209EAEEFCE20E94E31364
:10138000EA81FB81D190E080FF2400270E949F1218
:101390000E947913EDE0F0E0A881B9810E94B015B8
:1013A000EEEEFCE20E94E313E881F9810E947B12D9
:1013B0000E944713EDE0F0E0A881B9810E94B015CA
:1013C000EAEDFCE20E94E313E881F9810E947B12BE
:1013D0000E948813EDE0F0E0A881B9810E94B01569
:1013E0000C94A60AAA81BB810D911C910A3D50E084
:1013F000150710F40C94320AE2EFFCE20E94E313AA
:10140000EA81FB81D190E080FF2400270E949F1297
:101410000E947913EDE0F0E0A881B9810E94B01537
:10142000E6EFFCE20E94E313E881F9810E947B125F
:101430000E944713EDE0F0E0A881B9810E94B01549
:10144000EAEFFCE20E94E313E881F9810E947B123B
:101450000E948813EDE0F0E0A881B9810E94B015E8
:101460000C94A60AAA81BB810D911C91003850E012
:10147000150710F40C94720AEEEFFCE20E94E313DD
:10148000EA81FB81D190E080FF2400270E949F1217
:101490000E947913EDE0F0E0A881B9810E94B015B7
:1014A000E2E0FDE20E94E313E881F9810E947B12F1
:1014B0000E944713EDE0F0E0A881B9810E94B015C9
:1014C000EEEDFCE20E94E313E881F9810E947B12B9
:1014D0000E948813EDE0F0E0A881B9810E94B01568
:1014E0000C94A60AE6E0FDE20E94E313EA81FB8188
:1014F000D190E080FF2400270E949F120E94791360
:10150000EDE0F0E0A881B9810E94B015EAE0FDE2CB
:101510000E94E313E881F9810E947B120E94471325
:10152000EDE0F0E0A881B9810E94B015EEEAFCE29E
:101530000E94E313E881F9810E947B120E948813C4
:10154000EDE0F0E0A881B9810E94B015E881F98151
:10155000AC81BD810E94B01584E0481A80E0580A31
:10156000229608953FBE84E00E942012EAECFCE23D
:101570000E94E313EA81FB810E947B120E94F11218
:10158000EDE0F0E0A881B9810E94B015E881F98111
:101590000E943116EDE0F0E0A881B9810E94B015FB
:1015A000E881F981AC81BD810E94B01584E0481AC0
:1015B00080E0580A229608950F921F922F923F9230
:1015C0004F925F927F92AF92BF920F931F932F9390
:1015D0003F934F935F936F937F938F939F93AF93BB
:1015E000BF93CF93DF93EF93FF938FB78F9370EFFA
:1015F00074BD07B1007E006007B90E943412ABECE5
:10160000B1E0AD90BB24AEECB1E0AA0CBB1CAA0DBE
:10161000BB1D8D939C9307B1007E016007B90E94AA
:101620003412ABECB1E0AD90BB24AAEFB1E0AA0C50
:10163000BB1CAA0DBB1D8D939C9307B1007E03605C
:1016400007B90E943412A2E9B1E08D939C9307B1CF
:10165000007E026007B90E943412A7E4B2E08D93C5
:101660009C93ABECB1E08C918F5F8C930091CB019C
:10167000043111F00C94460B80E08093CB01709103
:10168000CD0170687093CD01882785BD8F918FBF84
:10169000FF91EF91DF91CF91BF91AF919F918F918A
:1016A0007F916F915F914F913F912F911F910F917A
:1016B000BF90AF907F905F904F903F902F901F9082
:1016C0000F90189584E00E94201284E00E9420125E
:1016D00081E00E94201282E00E94201281E0AA8113
:1016E000BB818C93E8E9F1E00E947B12EEE0FDE221
:1016F0000E94E3130E94EC1310F00C94870B80E01F
:1017000090E0A881B9818D939C930C94E80C009192
:101710004602023011F00C94AD0BE8E2F2E00E94B8
:101720008012E8E9F1E00E947B120E94F112EDE0E4
:10173000F0E0A4E3B2E00E94B015EAEAFCE20E9405
:10174000E313E4E3F2E00E947B120E944713EDE012
:10175000F0E0A4E3B2E00E94B015E4E3F2E00E94FE
:101760007B12E6EAFCE20E94E3130E94EC1318F0FD
:1017700011F00C94BD0B0C945E0CE4E3F2E00E94BB
:101780007B12E2E1FDE20E94E3130E94EC1318F0E9
:1017900011F00C94E30B85E090E0A5EAB1E08D93A5
:1017A0009C93E2EDFCE20E94E313E4E3F2E00E948A
:1017B0007B120E948813EDE0F0E0A0E4B2E00E940A
:1017C000B0150C945C0CE5EAF1E0D190E0808FEF6D
:1017D000E7FE8827F82E082F0E949F120E94D6123B
:1017E000E4E3F2E00E947B120E948813EDE0F0E057
:1017F000A0E4B2E00E94B015E0E4F2E00E947B12A7
:10180000E6EAFCE20E94E3130E94EC1310F00C9451
:101810000F0CA0E4B2E0E6EAFCE20E94D514E0E49A
:10182000F2E00E947B12ECE3F2E00E9480120E9440
:10183000EC1318F011F00C941F0C0C94250CECE335
:10184000F2E0A0E4B2E00E94B015EFEAF1E00E94FD
:101850007B12E4E3F2E00E9480120E94EC1310F08D
:101860000C94400CA5EAB1E00D911C9145E050E0CC
:10187000040F151FA5EAB1E00D931C930C945C0CAA
:10188000EFEAF1E00E947B12E4E3F2E00E948012B2
:101890000E94EC1318F011F00C94500C0C945C0C9A
:1018A000A5EAB1E00D911C9145E050E0041B150B39
:1018B000A5EAB1E00D931C930C94640CE4E3F2E010
:1018C000A0E4B2E00E94B015E8E9F1E00E948012C5
:1018D000E0E4F2E00E947B120E94F112EDE0F0E001
:1018E000AE81BF810E94B0150091A401003011F0BB
:1018F0000C948C0CE6E1FDE20E94E313EE81FF8183
:101900000E947B120E944713EDE0F0E0AE81BF81A0
:101910000E94B0150C949C0CEAE1FDE20E94E313D6
:10192000EE81FF810E947B120E944713EDE0F0E000
:10193000AE81BF810E94B015EE81FF810E947B12B3
:10194000EEE1FDE20E94E3130E94EC1318F011F0A7
:101950000C94AC0C0C94C00C82E0AA81BB818C93DB
:10196000EEE0FDE20E94E313EE81FF810E947B1214
:101970000E94F112EDE0F0E0AE81BF810E94B0154F
:10198000E2E2FDE20E94E313EE81FF810E947B12FE
:101990000E944713EDE0F0E0AE81BF810E94B015D8
:1019A000EEE1FDE20E94E313EE81FF810E947B12D3
:1019B0000E94F112EDE0F0E0AE81BF810E94B0150F
:1019C000EE81FF810E943D12A881B981DD92EC92E7
:1019D0003FB6F894A881B9818D919C91D2018D93E5
:1019E0009C9382E00E942612AC81BD818C91D20131
:1019F0008C9381E00E9426120E948B0D249683E036
:101A00000E9417128BE0481A80E0580A2896089521
:101A10000F921F922F923F924F925F927F92AF92BE
:101A2000BF920F931F932F933F934F935F936F93A7
:101A30007F938F939F93AF93BF93CF93DF93EF9356
:101A4000FF938FB78F9372EC72BFAAE8B1E00D914C
:101A50001C9141E050E0040F151FAAE8B1E00D937E
:101A60001C93ACE8B1E00D911C9141E050E0040FF3
:101A7000151FACE8B1E00D931C93AEE8B1E00D91F9
:101A80001C91003050E0150718F011F00C944A0D2D
:101A90000C94560DAEE8B1E00D911C9141E050E080
:101AA000041B150BAEE8B1E00D931C93A0E9B1E067
:101AB0000D911C91003050E0150718F011F00C94B6
:101AC000630D0C946F0DA0E9B1E00D911C9141E004
:101AD00050E0041B150BA0E9B1E00D931C938F910E
:101AE0008FBFFF91EF91DF91CF91BF91AF919F9108
:101AF0008F917F916F915F914F913F912F911F91A6
:101B00000F91BF90AF907F905F904F903F902F903C
:101B10001F900F9018953FBE82E00E942012AC816A
:101B2000BD818D919C91A881B9818D939C93A88151
:101B3000B98111968C91A1E5B2E08C93A881B9810D
:101B40008C91A2E5B2E08C93AA81BB810C9101300B
:101B500011F00C94B20DA1E5B2E08C9180678C93EA
:101B60000C94B70DA1E5B2E08C9180658C93C4987C
:101B7000EF93FF93ECE0F0E00E94FA10FF91EF91F9
:101B800092E0A1E5B2E00E94FD10C49AEF93FF93AA
:101B9000ECE0F0E00E94FA10FF91EF91C398EF9310
:101BA000FF93ECE0F0E00E94FA10FF91EF91C39AEE
:101BB00082E0481A80E0580A229608953FB6F894C9
:101BC0008CE0D2018C9381E00E94261280E0D20149
:101BD0008C9381E00E9426120E94BB0E249682E024
:101BE0000E9417123FB6F8948BE0D2018C9381E0EB
:101BF0000E94261285E0D2018C9381E00E94261279
:101C00000E94BB0E249682E00E9417123FB6F89401
:101C100089E0D2018C9381E00E9426128FEFD201DD
:101C20008C9381E00E9426120E94BB0E249682E0D3
:101C30000E9417123FB6F8948AE0D2018C9381E09B
:101C40000E9426128AE0D2018C9381E00E94261223
:101C50000E94BB0E249682E00E9417123FB6F894B1
:101C600081E0D2018C9381E00E94261280E0D201B3
:101C70008C9381E00E9426120E94BB0E249682E083
:101C80000E9417123FB6F89482E0D2018C9381E053
:101C90000E94261280E0D2018C9381E00E942612DD
:101CA0000E94BB0E249682E00E9417123FB6F89461
:101CB00083E0D2018C9381E00E94261280E0D20161
:101CC0008C9381E00E9426120E94BB0E249682E033
:101CD0000E9417123FB6F89484E0D2018C9381E001
:101CE0000E94261280E0D2018C9381E00E9426128D
:101CF0000E94BB0E249682E00E9417123FB6F89411
:101D000085E0D2018C9381E00E94261280E0D2010E
:101D10008C9381E00E9426120E94BB0E249682E0E2
:101D20000E9417123FB6F89486E0D2018C9381E0AE
:101D30000E94261280E0D2018C9381E00E9426123C
:101D40000E94BB0E249682E00E9417123FB6F894C0
:101D50008CE0D2018C9381E00E94261281E0D201B6
:101D60008C9381E00E9426120E94BB0E249682E092
:101D70000E94171208953FBEC298AA81BB818C9120
:101D800080935402A881B9818C918093550292E08E
:101D9000A4E5B2E00E94FD10C29A08953FBE82E021
:101DA0000E94201282E00E94201281E00E942012F4
:101DB000E885F9850E943D12AC81BD81DD92EC92EF
:101DC000AC81BD810D911C91043650E0150710F4D3
:101DD0000C945E0FAC81BD810D911C9144E650E0E6
:101DE0000E949910AA81BB814D935C93AA81BB810B
:101DF0008C91A881B9818C933FB6F89481E0D2018F
:101E00008C9381E00E942612AA81BB818C91D20121
:101E10008C9381E00E9426120E94BB0E249682E0E1
:101E20000E941712AC81BD810D911C9144E650E0D7
:101E30000E949910AC81BD810D931C93AC81BD8132
:101E40000C914AE00E94E615A881B9810C933FB637
:101E5000F89482E0D2018C9381E00E942612AA813C
:101E6000BB818C91D2018C9381E00E9426120E944A
:101E7000BB0E249682E00E941712AC81BD810C91AA
:101E80004AE00E94E615A881B9818C933FB6F89488
:101E900083E0D2018C9381E00E942612AA81BB814B
:101EA0008C91D2018C9381E00E9426120E94BB0E7D
:101EB000249682E00E9417120C94E70FEEECFCE2ED
:101EC0000E94E313E885F9850E947B120E94471364
:101ED000EDE0F0E00E943D12AC81BD81DD92EC921C
:101EE000AC81BD810D911C9144E650E00E94991097
:101EF000AA81BB814D935C93AA81BB818C91A881FF
:101F0000B9818C933FB6F89481E0D2018C9381E043
:101F10000E942612AA81BB818C91D2018C9381E010
:101F20000E9426120E94BB0E249682E00E94171285
:101F3000AC81BD810D911C9144E650E00E94991046
:101F4000AC81BD810D931C93AC81BD810C914AE0A5
:101F50000E94E615A881B9810C93A881B9818C9162
:101F600080688C933FB6F89482E0D2018C9381E034
:101F70000E942612AA81BB818C91D2018C9381E0B0
:101F80000E9426120E94BB0E249682E00E94171225
:101F9000AC81BD810C914AE00E94E615A881B9810F
:101FA0008C933FB6F89483E0D2018C9381E00E9439
:101FB0002612AA81BB818C91D2018C9381E00E9470
:101FC00026120E94BB0E249682E00E941712EEECAD
:101FD000FCE20E94E313EE81FF810E947B120E94CB
:101FE000F112EDE0F0E00E943D12AC81BD81DD9286
:101FF000EC92AC81BD810D911C9144E650E00E94B1
:102000009910AA81BB814D935C93AA81BB818C916D
:10201000A881B9818C93A881B9818C9180688C93B7
:102020003FB6F89484E0D2018C9381E00E9426129E
:10203000AA81BB818C91D2018C9381E00E942612EF
:102040000E94BB0E249682E00E941712AC81BD81D3
:102050000D911C9144E650E00E949910AC81BD8125
:102060000D931C93AC81BD810C914AE00E94E61552
:10207000A881B9810C933FB6F89485E0D2018C9386
:1020800081E00E942612AA81BB818C91D2018C939F
:1020900081E00E9426120E94BB0E249682E00E94DC
:1020A0001712AC81BD810C914AE00E94E615A8810F
:1020B000B9818C933FB6F89486E0D2018C9381E08D
:1020C0000E942612AA81BB818C91D2018C9381E05F
:1020D0000E9426120E94BB0E249682E00E941712D4
:1020E00085E0481A80E0580A2696089500FC10D032
:1020F000089503D01ED001F8F9CF0024E89457FFCB
:1021000002C009D0689400F80BD010F8012408959B
:1021100002D009D00895509540954F5F5F4F0895C4
:10212000E89417FF0895009510950F5F1F4F68946E
:102130000895352F242FE894452B11F468940895C1
:10214000512F402F0027112780E1440F551F001FFA
:10215000111F021B130B416018F4020F131F4E7F57
:102160008A9599F708958F938D918823E9F71197B0
:102170008F91089580916101882309F081E008958D
:102180000F929F93AF93BF937F93809161018823B8
:10219000E1F3F894809161018A95809361019091B7
:1021A0005F01A0E6B0E0A90F0024B01D8C919395CB
:1021B0009F3F09F4992790935F0178947F91BF9195
:1021C000AF919F910F900895A0E6B7E08D9188237D
:1021D00011F00CD0FBCF08950E94D613802D11F082
:1021E00005D0FACF08958DE001D08AE05D9BFECF47
:1021F0008CB908953197F1F708950E9410118D91CF
:102200000E9414119A95D9F70E9412110895BF9A4D
:10221000BE98C69ABD9ABC9AC49A82E58DB90895B3
:10222000C4980895C49A08958FB9779BFECF8FB153
:102230000895689462F80895E89462F808958DE22C
:1022400007FD8D938F2D881F802F881F8F57082F94
:102250006894F7F8802F87FF15C080958395082F25
:1022600080E38D938EE28D93802F815228F080E35E
:102270008D9399279C93089544270A95802F09F1FF
:1022800096D01FC0805230F09EE49D9381E48D93E0
:102290009D93EFCF4427DF92EF92FF920F938FE150
:1022A000801B11F0082F83D089D09EE29D930F915F
:1022B000FF90EF90DF9044270395003209F4D7CFC9
:1022C0002BD03F93EEE4F3E238E12F2D1E2D0D2DA0
:1022D000FF24EE24DD244427000F111F221FA8F441
:1022E0002F923F920E94D613102C0E94D613202CBE
:1022F0000E94D613302C0E94D6133197410DD21C68
:10230000E31CF01C3F902F9001C0339631963A9514
:1023100019F73F9107D0AFCFDD0CEE1CFF1C0A95DB
:10232000D9F70895002719E058D08F93802B11F02A
:10233000039501C08F911A95B9F7802F882309F46E
:1023400096CF8F91805D8D930A95D9F792CF0065D6
:10235000CD1D80B2E60E40597307A0ACB90350D62C
:10236000DC01286BEE0094357700CA9A3B0065CDFE
:102370001D00B2E60E0059730700ACB90300D6DCAD
:1023800001006BEE0000357700009A3B0000CD1D88
:102390000000E60E000073070000B9030000DC0136
:1023A0000000EE000000770000003B000000F69403
:1023B000E794D79447950A95D1F7089500270DD053
:1023C0008F9303958F2D8E298D29842BC1F78F91A3
:1023D000805D8D930A95D9F74CCF1F930F930027FB
:1023E00010E2440FDD1CEE1CFF1C001F802F9AE042
:1023F000890B10F0082F43951A9599F7802F0F91AC
:102400001F91089520935A0230935B0240935C021F
:1024100050935D02089520915A0230915B024091E1
:102420005C0250915D020895481A590A0895481AAD
:102430008827580A08955A924A92480E591E0895BC
:102440005A924A92480E8827581E08955A924A92E4
:10245000480E8827581E80EA481687E0580608F478
:102460000895689462F80895369A3699FECF369AA0
:102470003699FECF84B195B108953DD099271127A3
:102480008F2D880F80E8F82A802F881F08F41FEF0F
:1024900041F08F57082F07FD04C0003240F08FEF46
:1024A00001C08827982FD82EE82EF82E09C08FE17A
:1024B000801B082FF694E794D79497950A95D1F747
:1024C000112351F09095D094E094F09481E0980F0E
:1024D0008827D81EE81EF81E0F2DFE2CED2CD92EB5
:1024E0000895D094E094F09491E0D90E9927E91ED4
:1024F000F91E10950895D190E190F1900191089501
:1025000021913191419151910895102F90E8FF0C44
:10251000001F0927990FF7941078652F90E8440F52
:10252000551F5927990F4795607800380895FF0C7B
:1025300090E89027110F9795F794092F0895102F81
:10254000BD2CDE2CEF2CF02E11234AF4B094D09445
:10255000E094F0949FEFB91AD90AE90AF90A0EE15A
:10256000FF2039F4FE2CED2CDB2CBB240850C2F7E5
:102570006CC032F00A95BB0CDD1CEE1CFF1CF9CFC1
:102580000E94C312D4CFB7FE089590E8B91611F493
:10259000D0FE08959FEFD91AE90AF90A09F40395C4
:1025A0000895DD92ED92FD920C930895502F2D2DFC
:1025B0003E2D4F2D612F08952DEC3CEC4CEC5DE34E
:1025C00066270FC098DFF2DFDD24EE2490E8F92EB5
:1025D0000FE307C095DF05C02227332740E251E40F
:1025E0006627552351F1002381F18FDF71F1162702
:1025F000005850580894050B18F407FD03C025C077
:1026000007FD23C0469537952795F694E794D79410
:1026100022D0FF202AF0DD0CEE1CFF1C015073F0CD
:102620009D2D969548F0DD203AF4EE202AF491E0B5
:10263000D90E9927E91EF91E7ACF07C09FE7092F07
:10264000F92A9FEFD92EE92E0895DD24EE24FF24E8
:102650000027112708959F929924AA24BB2488E17A
:10266000D216E306F40628F0D21AE30AF40A089414
:1026700001C08894991CAA1CBB1CDD0CEE1CFF1C1D
:102680008A9571F7D92CEA2CFB2C9F9008953DDF99
:10269000E1F25038D1F21627005850580894051F1F
:1026A00012F418F4CBCF08F0D0CF0BD0FF202AF0D3
:1026B000BB0CDD1CEE1CFF1C3ACF0F5F0BF4BECF32
:1026C00036CF9F929924AA24BB24992788E1990C9C
:1026D000AA1CBB1CDD1CEE1CFF1C30F4920EA31EBA
:1026E000B41ED91EE91EF91E8A9589F79F90089598
:1026F00007DF0BDF503829F090E869270CC00AF09B
:1027000045D015CF5FE322273327442701C0F8DEE9
:10271000FCDE5038B1F3003899F3902F951B8BF302
:1027200012F434D0FACF983118F0222733274427F7
:10273000983028F0232F342F44279850F9CF99232D
:1027400029F04695379527959A95D9F7912F962791
:1027500042F014D0B0F6F794E794D7940F5F8BF65D
:102760006DCF10D051F008F4BCDEFF2052F2DD0C2A
:10277000EE1CFF1C0150CBF761CF67CFD20EE31EDA
:10278000F41E0895D21AE30AF40A0895DF92EF9234
:10279000FF920F931F93D22EE32EF42E052F162FA8
:1027A0006F915F914F913F912F910895C895319608
:1027B00000200895FBDFD02CF9DFE02CF7DFF02CB0
:1027C000F5DF002D0895F2DF202DF0DF302DEEDF54
:1027D000402DECDF502D089507FB00680EF40F77B5
:1027E00057FB50680EF45F7707FD02C057FF05C026
:1027F000D216E306F406050708952D153E054F058C
:10280000500708950E941C1188278A938A931DDF20
:1028100011278D918032E9F31197BBD098F08D325A
:1028200029F4109511968C91B4D060F08E3229F471
:1028300011968C91AED008F446C022960E941911D0
:1028400081E008958C91A5D0D8F547D01196D0F7A6
:1028500003958D919ED0E0F38E3229F48C9199D01E
:1028600010F41196FBCF853419F0853609F055C068
:1028700011968C918ED060F08D3219F08B3221F050
:10288000DCCF08800094088211968C9182D0A8F643
:102890008053898311968C917CD058F49981990F3B
:1028A000990F0980900D990F8053890F8983873282
:1028B00020F68981988199230AF48195080F2DC00B
:1028C0008E3289F611968C9164D068F606D018F095
:1028D00011960A95F8CF1196C1CF4F2D3E2D2D2D73
:1028E000DD0CEE1CFF1CA8F0DD0CEE1CFF1C88F0BC
:1028F000D20EE31EF41E68F0DD0CEE1CFF1C48F047
:10290000805309F06894D80E8827E81EF81E08F056
:102910000895F42EE32ED22E089534D019F116F531
:10292000098308E921D00695882787959F2D9F77F1
:10293000980FF92E0150000F110F079589818823F8
:1029400079F01AF48195898306C036DE89818A95EB
:102950008983D9F705C040DE89818A958983D9F7B3
:102960002296089572DEFCCF0DD041F0FF2032F0A8
:102970000A9531F0DD0CEE1CFF1CD2F78894089507
:102980000894089500240D280E280F28002A0020FE
:102990000895803320F08A3310F4089408958894C1
:1029A000089591E005C092E003C094E001C098E072
:1029B000FDDE0D929A95E1F7089580E30EF483957C
:1029C00008957F930F93AF93BF938F939F938FB788
:1029D0008F93809161010FEF081B21F49CB10E943D
:1029E000191112C000916001A0E6B0E077279CB1F8
:1029F000A00FB71F9C9383958093610103950F3FB0
:102A000009F40027009360018F918FBF9F918F91F0
:102A1000BF91AF910F917F911895040F151F261F3D
:102A2000371F089504171507260737070895000F65
:102A3000111F221F331F0895009510952095309582
:102A40000F5F1F4F2F4F3F4F0895019110810EC010
:102A500001911191219130810BC00191108117FFDB
:102A600005C03FEF2FEF04C0008111272227332735
:102A700037FF03C0E1DF8DE28D93CF93DF93CF92D9
:102A8000DF92EF92AA24BB24CC24DD24EE2440E282
:102A9000CAE0DD2755E093E38881890F87FD9F70A9
:102AA00083FD907F891B89935A95A9F7C0DFAA1CE3
:102AB000BB1CCC1CDD1CEE1C4A9551F7E894EFE0E2
:102AC000FF2782910ED0EB30E0F71EF068948A2D3C
:102AD0000CD088278D93EF90DF90CF90DF91CF912E
:102AE0000895982F829501D0892F8F70805D26F0F0
:102AF000803309F4089568948D9308950027112771
:102B0000222733271DD08A3328F4803318F005D0CC
:102B100015D0F9CF0EF490CF089580538F93402FA6
:102B2000512F622F732F83DF82DF77DF80DF8F915A
:102B30009927080F191F291F391F08958D9108958E
:102B4000E894FCDF8032E9F38B32D9F38930C9F3A2
:102B50008D3211F46894F2CF089588278D930895EB
:102B600094E081918D939A95E1F70895099191915F
:102B7000992351F08A95D9F7319781918D930A95D0
:102B800019F08823D1F70895E8CFE199FECFEEBB85
:102B9000FFBB3196089591E001C092E07B3751F47C
:102BA0007FB7F894F2DF8D918DBBE29AE19A9A9506
:102BB000C9F77FBF7727089591E001C092E0E5DF74
:102BC000E09A8DB38D939A95D1F70895FF93881B62
:102BD000F9E0001FFA9511F4FF910895881F841BF6
:102BE00018F4840F8894F5CF0894F3CF8FEF839572
:102BF0009D919923E1F70895689401C0E894AF93FB
:102C0000BF938D9116F0919103C00E94D613902D21
:102C1000891718F011F48823A1F7BF91AF91089597
:102C200088E00FB6F8945A924A92E42DF52DA42D1F
:102C3000B52D480E8827581E0FBE08950FB6F8947C
:102C4000499059900FBE089556DC802FFF0C001F4D
:102C5000901728F4091B881F0795F7940895F5CC61
:102C6000F4CC49DC0023E2F3D9F388E0DADF99DC25
:102C70001196FF0C001F8FE7080F0795F794069534
:102C8000F79483E08F9392DC8CDC139734DCA9DC1F
:102C900037DC38973DDD91E0D8DF8F918A9511F0D0
:102CA0008F93F1CFCBCF0000000000007A440000EA
:102CB000C842000030410000803FCDCCCC3D000038
:102CC000C84300401C46000048430000A0410000EB
:102CD00020410000484200000C4200002042000059
:102CE000A0420000964200C07F440000B743CDCC14
:102CF000CCBD00005A43713D0ABE00007042000086
:102D00000043F85363BE00009842B81EC5BE0000E1
:102D100000400000F041E7E3DA3A70CE883C000062
:102D2000204000F07F4555003B00410041414320D9
:102D30004443204C6F61642056322E300000420024
:102D40003100430044004500460047004800490068
:102D50004A004B004C004D004E004F005000520006
:0C2D600053005400560057005800590062
:00000001FF
