:100000000C942A001895000018950000189500001F
:10001000189500001895000018950000189500002C
:10002000189500001895000018950000189500001C
:10003000189500001895000018950000189500000C
:1000400018950000189500001895000018950000FC
:10005000189500008FE58DBFC0E2E8E74E2E88E0DE
:100060008EBFD8E0F7E05F2EA89584B7082E877F73
:1000700084BF88E1992781BD91BDEEEFF7E0A0E64E
:10008000B0E088278D933197E9F766248E9A969A87
:100090000E947C0080E290E0A0E6B0E08D939C930B
:1000A000969892E0A0E6B0E00E947200969A8FE7E0
:1000B0009FEFA4E6B0E08D939C9380E49FE3A2E6DB
:1000C000B0E08D939C93969892E0A4E6B0E00E94F5
:1000D000720092E0A2E6B0E00E947200969A319718
:1000E000F1F708950E9485008D910E9489009A95EC
:1000F000D9F70E9487000895BF9ABE98C69ABD9A04
:10010000BC9AC49A88E58DB90895C4980895C49A94
:1001100008958FB9779BFECF8FB10895689462F8E8
:080120000895E89462F80895C7
:00000001FF
