:020000040000FA
:060000000211BA021C030C
:03000B00021C06CE
:03001300021C09C3
:03001B00021C0CB8
:03002300021C0FAD
:03002B00021C12A2
:03003300021C1597
:03003B00021C188C
:03004300021C1B81
:03004B00021C1E76
:03005300021C216B
:03005B00021C2460
:03006300021C2755
:03006B00021C2A4A
:03007300021C2D3F
:03007B00021C3034
:03008300021C3329
:03008B00021C361E
:03009300021C3913
:03009B00021C3C08
:2000A300021C3F000000000000000000000000000000BE0000000000000000000007000714
:2000C3000000000000000000143E143E14000000000000004C92FF92640000000100000091
:2000E300CC326E9A66000000000000006C92AA44A0000000000000000000070000000000FE
:200103000000000000007C8201000000000001000001827C000000010000000014083E087A
:20012300140000000000000010107C10100000000000000000C0C000000000020100000069
:200143001010101010000000000000000000C0C0000000000000000000C0300C03000300CA
:20016300000000007C8282827C00000000000000000084FE800000000000000084C2A29282
:200183008C00000000000000448292926C000000000000003028A4FEA000000000000000E0
:2001A3004E8A8A8A72000000000000007C8A8A8A70000000000000000202E2120E0000004E
:2001C300000000006C9292926C000000000000001CA2A2A27C000000000000000000D8D860
:2001E300000000000000000000D8D80000000002010000000010284482000000000000004B
:200203002828282828000000000000000082442810000000000000000402A2120C0000004F
:20022300000000007CAABAA21C00000000000000FC121212FC00000000000000FE9292923B
:200243006C000000000000007C8282824400000000000000FE8282827C00000000000000E9
:20026300FE9292928200000000000000FE12121202000000000000007C8282927400000089
:2002830000000000FE101010FE000000000000000082FE820000000000000000608080804D
:2002A3007E00000000000000FE1028448200000000000000FE8080808000000000000000C3
:2002C300FE041804FE00000000000000FE040810FE000000000000007C8282827C00000069
:2002E30000000000FE1212120C000000000000007C82C2827C00000000000100FE121212C8
:20030300EC000000000000004C92929264000000000000000202FE02020000000000000082
:200323007E8080807E000000000000003E4080403E00000000000000FE403040FE00000016
:2003430000000000C6281028C6000000000000000E10E0100E00000000000000C2A2928A12
:200363008600000000000000000000FF0100000000010100030C30C00000000000000300F0
:200383000001FF00000000010100000008040204080000000000008080808080800000003E
:2003A3000000000000010204000000000000000070888848F800000000000000FE888888DD
:2003C300700000000000000070888888500000000000000070888888FE000000000000004C
:2003E30070A8A8A8B0000000000000000008FC0A020000000000000070888888F8000002D0
:2004030002020100FE080808F0000000000000000088FA8000000000000000000008FA00CA
:200423000000020201000000FE20304880000000000000000082FE8000000000000000009E
:20044300F808F808F000000000000000F8100808F000000000000000708888887000000029
:2004630000000000F8888888700003000000000070888888F800000000000300F81008085B
:20048300100000000000000090A8A8A8480000000000000000087E888000000000000000EB
:2004A30078808040F8000000000000003840804038000000000000007880788078000000B1
:2004C3000000000088502050880000000000000078808080F80000020202010088C8A898C2
:2004E3008800000000000000000010EF00000000000102000000FF0000000000010000006F
:200503000000EF1000000002010000000402060402000000000000000000000000000000C4
:20052300000000E4F52475FFDE75FFADC2AFC2AFA2B7B3920A300A04C2098005A293B392B6
:200543000912161C121942121AE175840F300A1812197412183A7BFF7A1279B6752B017D21
:20056300167F0C7E001212CCE4900F88F0C2077F1B7EFCFDFC12153C8F24EFF4701DA20A66
:2005830033F5247B007A007924753500753601C2047F1B120E601215AE8033209030AF2409
:2005A3007E00EF7005752401800EC3EF9401EE648094804003E4F5247B007A007924752C8E
:2005C30000752D01C2037F1B120E6012187012081AA2FF4003D38001C3920D1218DB8F2377
:2005E300300D03300A1B300D07300A04E5246011300D11120ED0D3EF94FEEE6480947F50A0
:2006030003D38001C39201200106300903D38001C3920F300A06200103D38001C3920CC234
:20062300003009427A00790C120F3C7F1C120E601214C774FFFFFEFDFCAB0FAA0EA90DA89F
:200643000CC3120C82701FF50F750EC2750D01F50CFB7A00790CF535753604C2047F1C7E1A
:20066300FCFDFC1215AE300F0812112075100180093001061219A3E4F510200111200A0EBC
:2006830020090BB2FB7FF47E0112190F80F5120ED0EF64014E703B200C2E200F2B300A1199
:2006A3007BFF7A12798C752B017D2C7F12FE1212CC20000B1208022000F712081A80F27BE4
:2006C300FF7A1279551217C17F907E0112190F121C00120ED0EFF47002EEF46027300A12E4
:1D06E3007BFF7A1279A0752B017D427F127E001212CC20000F1208022000F77FE8B3
:200700007E0312190F80EE120ED0BEFF0BBFFF087BFF7A12795E8017120ED0BEFF0BBFFD4A
:20072000087BFF7A12796780067BFF7A1279701217C1C200C2023000030208011217327BD2
:20074000FF7A12797912168292007BFF7A12797D1216825004D200D2023000DAC2B730028B
:2007600017752C00752B9C752A017529007F007E807D017C001216DEC205120E5E1213CE92
:20078000E4752CFF752BFBF52AF529FF7E1CFDFC1216DE120CAFEF3395E04F6002C20E3050
:2007A0000E40120E501215AE7A007915120EA37F02120E601215AE120E9F7F06120E60122F
:2007C00015AE120FA4EF7002C20EE4F524FB7A007924F52C752D01C2037F1B7EFCFDFC12A9
:2007E0001870D2B77BFF300E0C7A1279551217C1121C0080077A1279701217C1C200020701
:2008000036227BFF7A1279461217C11217327BFF7A12794F1216829200227FE87E03121937
:200820000F228F318E308D2F8C2E3004057540018003754004754100E54124FFFFE5403411
:20084000FFFEEFF4FBEEF4FAFEE4FCEB5531FFEE5530FE7401552FFDEC8F378E368D35F5FF
:2008600034E5412537FFE5403536FEE43535FDEC3534120EFC8F3B8E3A8D39F538E4FC74A0
:2008800001FD147901F81D120F5AED352FFDEC352EFC120C5F8F3F8E3E8D3D8C3CE54125AF
:2008A0003FFFE540120F65120EFCFCAB3BAA3AA939A838C3120C827074C205FFFC1209BBCC
:2008C000E42531FFE53034F4FEE52F3401FDE4352EFCC3EF9537FBEE9536FAED9535F9EC53
:2008E0009534F8AE32AF33E4FCFD120B358F458E448D438C42120F5AE4352FFDE4352E8F6C
:20090000498E488D47F546120F70FEC3EF9533FFEE9532CF2401F54BE43FF54AC2058549C1
:2009200053854852120A5C120A400209B7C2057F007C001209BB120A40120A0AC2057F004F
:200940007EF47D017C001213CE120F70CF2401CF3400FEC3E5339FFFE5329EAB07FAFEE4F6
:200960002FFFEE34F4FEE43401FDE4338F458E448D43F542AF03AE02EF253FFFEE120F6533
:200980008F498E488D47F546C3E5419BF54BE5409AF54AC2058F538E52120A5CAF3FAE3EFD
:2009A000AD3DAC3CA20492051213CE853F45853E44853D43853C42120A0A227EF47D0112D3
:2009C00013CE7545007544F4754301754200853749853648853547853446C3E5319537F5BD
:2009E0004BE5309536F54AC205854953854852854751854650A2049206F554854B55AF45AE
:200A0000AE44AD43AC4212144E227549007548F475470175460085404A85414BA20492052C
:200A2000854953854852854751854650C206854A54854B55AF45AE44AD43AC4212144E22D4
:200A4000AF37AE36AD35AC34A20492051213CE853745853644853543853442228D51854617
:200A600050A2049206F554854B55AF45AE44AD43AC4212144E22BB010689828A83E02250F4
:200A800002E722BBFE02E32289828A83E49322BB010CE58229F582E5833AF583E022500699
:200AA000E92582F8E622BBFE06E92582F8E222E58229F582E5833AF583E49322BB01068956
:200AC000828A83F0225002F722BBFE01F322EF8DF0A4A8F0CF8CF0A428CE8DF0A42EFE223F
:200AE000BC000BBE0029EF8DF084FFADF022E4CCF875F008EF2FFFEE33FEEC33FCEE9DECB7
:200B0000984005FCEE9DFE0FD5F0E9E4CEFD22EDF8F5F0EE8420D21CFEADF075F008EF2F75
:200B2000FFED33FD4007985006D5F0F222C398FD0FD5F0EA22EF2BFFEE3AFEED39FDEC38CD
:200B4000FC22E88FF0A4CC8BF0A42CFCE98EF0A42CFC8AF0EDA42CFCEA8EF0A4CDA8F08BF7
:200B6000F0A42DCC3825F0FDE98FF0A42CCD35F0FCEB8EF0A4FEA9F0EB8FF0A4CFC5F02E14
:200B8000CD39FEE43CFCEAA42DCE35F0FDE43CFC2275F008758200EF2FFFEE33FECD33CDDF
:200BA000CC33CCC58233C5829BED9AEC99E58298400CF582EE9BFEED9AFDEC99FC0FD5F0E0
:200BC000D6E4CEFBE4CDFAE4CCF9A88222B800C1B90059BA002DEC8BF084CFCECDFCE5F05A
:200BE000CBF97818EF2FFFEE33FEED33FDEC33FCEB33FB10D703994004EB99FB0FD8E5E41E
:200C0000F9FA227818EF2FFFEE33FEED33FDEC33FCC933C910D7059BE99A4007EC9BFCE939
:200C20009AF90FD8E0E4C9FAE4CCFB2275F010EF2FFFEE33FEED33FDCC33CCC833C810D7A3
:200C4000079BEC9AE899400AED9BFDEC9AFCE899F80FD5F0DAE4CDFBE4CCFAE4C8F922EF67
:200C60005BFFEE5AFEED59FDEC58FC22EB9FF5F0EA9E42F0E99D42F0EC6480C864809845F5
:200C8000F022EB9FF5F0EA9E42F0E99D42F0E89C45F022A42582F582E5F03583F58322FAA3
:200CA000E6FB0808E6F925F0F618E6CA3AF6228584252010037F01227BFF7A127982121712
:200CC000C1C210752C1C752D00E4F50AF50BE52D24FFF532E52C34FFF531121A3FEF643A81
:200CE00060047F0180027F008F2EEF70ED121A618F2A121A61752C008F2DE52D752D00F52D
:200D00002C121A61EF422D121A618F2BEF6007640160037F0222E52B64017003020DEE7E51
:200D200000E52D252AFFEE352CFED3EF9532EE9531400AEF24FFF532EE34FFF531852C2628
:200D4000852D27C3E526941C5003020DEEA2AF9203C2AFE4F58443B781F52FF530120F7BD8
:200D60005039C3E52794FFE52694FB501E121A618F2E438F01852782852683E52EF0538F22
:200D8000FE0527E527700A05268006120F477F03220530E53070C6052F80C2120F47852CD7
:200DA00028852D29121A61AD07E4FCF52FF530120F7B501B0529E529AE2870020528120FED
:200DC00052F52E2CFC0530E53070E4052F80E0E52A2CFCE52C2C252D252B2DFF3395E04F0B
:200DE00060037F0422E52B64016003020CDAE42532F50BE53134E4F50AE4F518F517F516BB
:200E0000F51575281CF529F52FF530D3E530950BE52F950A50350529E529AE287002052837
:200E2000120F52F52EFFE4FCFDFEE5182FFFEE3517FEED3516FDEC35158F188E178D16F590
:200E4000150530E53070C4052F80C0D20E7F00227B007A00790A753500753602C2047F00F6
:200E60007EFC7D007C002214F5828E83E493F529FFE4FCFDFEE52D2FFFEE352CFEED352BF8
:200E8000FDEC352A8F2D8E2C8D2BF52A0528E528227D01AB4FAA4EA94DA84CC3020C827A3A
:200EA0000079117B00753500753604C204227D01AB5DAA5CA95BA85AC3020C82AB25AA2667
:200EC000A927EEFD3395E08D82F583120A8FFD22AF23EF3395E0FE22E4F52DF52CF52BF599
:200EE0002A75251CF526F527F52822AB33AA34A935EF3395E08F82F583020A8FFCEF24FF39
:200F0000FFEE34FFFEED34FFFDEC34FF22120AE0EFF404F58D538EEC227D01AB5DAA5CA9CC
:200F20005BA85AC3020C8274882509F582740F3508F58322C2AFE4F584FFFE227B007535F4
:200F400000753604C2042253B7FE852584A20392AF2214F5828E83E49322E5332531FFE535
:200F6000323530FE22353EFEE4353DFDE4353C22C3E53B9531FFE53A953022C3E530952A3A
:200F8000E52F940022D3E528950BE527950A2253B1CF43B1202253B1CF43B130227F007E1B
:200FA000807C00227B007A00790A753500753602C204120E5E1214C7E50BF47003E50AF4D9
:200FC000706B7525FB7526FFE5261526AE2570021525120F53F529F460EE0526E5267002C6
:200FE00005252400FFE52534E4F50A8F0B120E501215AE120ED8120F8550130526E526AEBF
:201000002570020525120E6770EC052780E87B007A00792A120EA57F02120E601215AE1253
:201020000E9F7F06120E601215AE7F0122C3E50B94FFE50A94DF40037F0022120ED8120FE2
:201040008550130526E526AE2570020525120E6770EC052780E87A007915120F3C7F021294
:201060000E601214C7AF2DAE2CAD2BAC2AAB18AA17A916A815C3120C8270037F01227F00BA
:20108000228E328F338D348B35E53524FFFFE434FFFEEF7803CEC313CE13D8F904F53AE403
:2010A000F539E539C395345076E5392536FF1218A6AD37E4F9FCECC3953A5056EC8534F0D4
:2010C000A42533F582E53235F0F583E582253912180BE493FFE53870036307FFE4FEEE129E
:2010E000182A502BE5386402600BEF5401FB121813EBF0800C121813E0FBEF5401FAEB6AB7
:20110000F0EFC313FFE9653560050D090E80CF0C80A4E5392536FF12177A05390210A22261
:20112000AB0FAA0EA90DA80C7F607E857D617C04120BCDE47B02FAF9F8120BCDAB07AA0611
:20114000758401759810E4F58453890F438920EAFF7E00C39401EE9400500AEBF404F58D44
:20116000438E108041C3EF9404EE94005014AE02EB7802CEC313CE13D8F9120F11438E012E
:201180008024EAC3940CE49400500D7C007D0CAF03AE02120F0D800EAE02AF037C007D30DB
:2011A000120F0D438E02858D8BD28E758401D29975840F43E74043F74022787FE4F6D8FD18
:2011C000758162021201020526E493A3F8E493A34003F68001F208DFF48029E493A3F854B3
:2011E00007240CC8C333C4540F4420C8834004F456800146F6DFE4800B010204081020400C
:2012000080901A1AE47E019360BCA3FF543F30E509541FFEE493A360010ECF54C025E060E3
:20122000A840B8E493A3FAE493A3F8E493A3C8C582C8CAC583CAF0A3C8C582C8CAC583CAD5
:20124000DFE9DEE780BE4E4545445F53200A00535441525400474F5F415050200A005544A4
:201260005F524459200A004E445F555044200A004D5F4641494C200A00555044005550442E
:2012800032005244595F524356200A005761697420666F7220746865204755492E2E2E00CD
:2012A0005761697420666F7220616E205550444154452E2E2E003C20424F4F544C4F414426
:2012C000455220205620312E36203E008E258F26C3ED951904F52E8B2F8A308931E4F52CAE
:2012E000AB2FAA30A931120A76FF605EAE26E52C851DF0A42EF52D251DFDE433FCD3ED9400
:20130000F0EC64809480400BE4F52C8E2DE519252EF52EC3EF951AFFE49400FEAD1E7C005D
:20132000120ACEEF251CFFEE351BFE852D36852E37852B38AB19AD1D121081052C740125A2
:2013400031F531E43530F5308096AF2D228F5D8E5C8D5B8C5A85845FA2AF920885B1601215
:201360000F34FC120EAE5008855C61855D62802F120F9D120EAE501EE55DFFE55C4480FE95
:20138000E55BFDE55A8F5D8E5C8D5BF55A8E618F62120F8F8009855C61855D62120F96432B
:2013A000B701438F01300703438F0475EF02856282856183E55EF0300703538FFB538FFE30
:2013C00053B7FE8560B1855F84A20892AF228F4F8E4E8D4D8C4C858450A2AF920685B151C5
:2013E000120F34FC120E915008854E52854F53802F120F9D120E91501EE54FFFE54E448091
:20140000FEE54DFDE54C8F4F8E4E8D4DF54C8E528F53120F8F8009854E52854F53120F969B
:2014200043B701438F03300503438F0475EF02855382855283E4F0300503538FFB538FFCED
:2014400053B7FE8551B1855084A20692AF228F4F8E4E8D4D8C4CE4F559F558F557F556AE69
:2014600054AF55E4FCFDAB59AA58A957A856C3120C825052E5532559FFE5523558FEE55181
:201480003557FDE5503556FCA206920712153C8F5EE54F2559FFE54E3558FEE54D3557FD4C
:2014A000E54C3556FCA205920712134DE5592401FFE43558FEE43557FDE435568F598E5847
:2014C0008D57F5568099228B2E8A2F89308F348E338D328C31E4F53AF539F538F537AE35FA
:2014E000AF36E4FCFDAB3AAA39A938A837C3120C825042E534253AFFE5333539FEE5323566
:2015000038FDE5313537FCA204920712153C782EE475F001120C9FEF120ABCE53A2401FFBF
:20152000E43539FEE43538FDE435378F3A8E398D38F53780A9AB2EAA2FA930228F5D8E5C90
:201540008D5B8C5A85845EA2AF920885B15F120F34FC120F195008855C60855D61802F12AE
:201560000F9D120F19501EE55DFFE55C4480FEE55BFDE55A8F5D8E5C8D5BF55A8E608F616C
:20158000120F8F8009855C60855D61120F96300703438F04856182856083E493FF30070347
:2015A000538FFB855FB1855E84A20892AF228F318E308D2F8C2E8B328A3389348F3A8E398A
:2015C0008D388C37E5362531FFE5353530FEE4352FFDE4352EFCAB3AAA39A938A837C312B1
:2015E0000C825037AF3AAE39AD38AC377832E475F001120C9F120A76F55EA2049207121344
:201600004DE53A2401FFE43539FEE43538FDE435378F3A8E398D38F53780A92275840F7503
:20162000E104E4F5E275E340300A0B75E21475A4F175808E801430090B75E34475A4F5753E
:20164000804A800675A4FD758002759D7F75D8C675A5F075900F75A6FFE4F5A075A7B27595
:20166000B0CD759C8075C87F759EFE75E8E9759F7F75F8A87F107E27EF1F70011EEF4E7023
:20168000F7228B258A268927E4FFFEEFFD3395E0FC74882DF582740F3CF583E060030F8007
:2016A000EA120EBC3395E04D60030E80F4EF6E6002C322E4FEC3EF6480F8EE648098501CA0
:2016C000120EBCEEFB3395E0FA74882BF582740F3AF583E06D6002C3220E80D9D322A2AF8F
:2016E0009203C2AF8F308E2F8D2E8C2DAF2CAE2BAD2AAC29AB30AA2FA92EA82DC3120C82D1
:201700005027AF30AE2FAD2EAC2DC2051213CEE42530FFE52F3404FEE4352EFDE4352D8F8D
:20172000308E2F8D2EF52D80C3A20392AFC20ED21022C203E4F508F509900F88F0200339CB
:20174000121A3FAB07EB600C640A6008EB640D6003BB2F09D203120F27E4F080E0C3E5098B
:201760009420E5086480948050D3120F27EBF00509E50970C8050880C422AC07E4F9FBEB6D
:20178000121832503BE4FAFFEF12182A5017740029121816E0FEA807088002C333D8FC2AF3
:2017A000FA090F80E31217FEE06A6011AF03AD04121AA2AF02121AD11217FEEAF00B80BFA8
:2017C000228B338A348935E4F537AF37120EEBFF3395E04F6004053780F0E4F536C3E537B8
:2017E0006480F8E536648098500FAF36120EEBF538FF121A82053680E47F0A021A8275F022
:2018000010EC900088120C93E5822BF582E43583F5832274002DF582E43400F5832275F095
:2018200010900088120C93E58222C394087480948022C394107480948022E4F525C3E52561
:20184000121833502AE4FDAF25121AA2E4FEEEC394F0748094805013E4FF121AD1EE1218B4
:201860001E252512180BE4F00E80E3052580CE228F288E278D268C258B298A2A892B852C4F
:2018800032852D33A2039204120822AF28AE27AD26AC25AB29AA2AA92B852C35852D36A27E
:2018A0000392040215AEA907E4FFFEEE1218325029E912181E2E12180BE0FDE4FCEC12180F
:2018C0002A5014ED5401FB74002F121816EBF0EDC313FD0F0C80E60E80D122AF8420B303B4
:2018E0007FFD22E4F584E5EF54036003D38001C3920320030CAEEFEE641070058F847FFF7F
:20190000228F84120FA4EF70037FFE227F01228E258F26E5264525600FE4FCFD7BDC7AFF31
:20192000F9F8C3120C6C5002C322E5261526AE25700215254E60097FE87E031219CC80EA6D
:20194000D32275840F758A83E4F58475EF0675B72075840F438901758D01758E03758F0112
:201960007FFFEF60031F80FA438902E58930E4FB75970222D295E4FD7FE2121ABE7F1E7ED5
:201980000012190F7D087FC0121ABEE4FD7FE9121ABE12183AE4FD7FAF121ABE751B0075CA
:2019A0001CA622E4F584F5C875C90875CBFF75CAD985CBCD85CACCD2CAF5847598507591DC
:2019C00015D29975840FD2AC43B81022858427758401E4FCFD7B24FAF9F8120B42C3E49F9E
:2019E000FFE49EF5CD8FCCD2CA30CFFD53C87B85278422EF7E0024D0B40A00401B24F9B47E
:201A00000A004011B41000400F24E0B40A004005B41000400374FFFEFF22011D0601190B6F
:201A2000011A20011E0CC110C18EC10DC10BC18AC109C10F0208000004113FCCCCCD00AF2F
:201A400084E510FD7C007004F5848009ED64014C70037584013098FDC298AE998F84AF06E5
:201A600022121A3F8F34121A3F8F35AF341219F3EFC454F0F533AF351219F3EF2533F53356
:201A8000FF22AE84AD107C00ED7004F5848009ED64014C70037584013099FDC2998F998E75
:201AA0008422AE05AD077FB0121ABEEEC4540FFD7F10121ABEEE540FFDE4FF021ABEED423B
:201AC000078FA0C294C29600D2970000C2970000228FA0D294C29600D2970000C29700008F
:101AE0002275840175C91875C804C2CA75840F228D
:081C000002BDAF02CFF5200088
:031C090002D046C0
:141C0F0002C4DC758402E4F5C9F5C843E704C2CA43F70422AB
:031C240002DC19C6
:031C2A0002B68B74
:0B1C330002D218B20C12D9B102B7D2D5
:201C3F0002C2E7000000FEFE222222FEDC000000000000000000000000000000000000009E
:201C5F0000000000000003030000000303000000F8F8000000000000000000000000000069
:201C7F00000000000000000000000000000000000F0F0808080800000080C0404040C080C7
:201C9F00000000000000000000000000000000000000000000000000003F7F404040602027
:201CBF00000000000000000000000000000000000000000000000000000000000000000005
:201CDF000000000000000000000000000000000000000000000000000000000000000000E5
:201CFF000000000000000000000000000000000000000000000000000000000000000000C5
:201D1F000000000000000000000000000000C03008040202020202040830C000C0300804A6
:201D3F000202020202040830C000C03008040202020202040830C000000000000101010178
:201D5F00010100000000000000000000000001000000000000000000000000000100000060
:201D7F00000000000000000000010101010101000000000000F808080808080808080808F6
:201D9F00080808080808080808080808080808080808080808080808080808F80000000054
:201DBF0000000101010101013F2020202020202020202020202020202020202020202020DF
:201DDF0020202020202020202020202020203F0101010101010000000000000000000000DF
:201DFF000000000000000000000000F8F800000000F8F800000000000000000000000000E4
:201E1F000000000000000000010101010101010101010101010101010101010101013F3F0F
:201E3F00000000003F3F0101010101010101010101010101010101010101010000000000F0
:201E5F00000000000000000000000000000000000000000000000000FF898989810000C682
:201E7F00281028C600000000FE0000000202FE020200000000000000000000000000000019
:201E9F0000000000000000000000000000000000FEFEFEFEFEFEFEFEFEFEFEFEFEFEFEFE43
:201EBF00FEFEFEFEFEFEFEFEFEFE0000FFFFFFFFFFFFFFFFFFFFFFFFFFFFFFFFFFFFFFFF2B
:201EDF00FFFFFFFFFFFF00007F7F7F7F7F7F7F7F7F7F7F7F7F7F7F7F7F7F7F7F7F7F7F7F01
:201EFF007F7F00000000C08000000000C00000000000000000804040408000000000000005
:201F1F000000FF0001020408FF000000000000003F40808080403F00000000000000000017
:201F3F000000000000000000000000000000000000000000000000000000008040404080C2
:201F5F000000000000000000C0000000000000000000000000003F40808080403F00000024
:201F7F0000000000FF0808142241800000000000000000000000000000000000000000003C
:201F9F000000000000000000000000000000000000000000008000000000000000000000A2
:201FBF000000000000000000000000003078FCB63331303030303030303030303030000004
:201FDF000000000000000000000000010306000000000000000000000000000000000000D8
:201FFF00000000000000000000000000000000008000000000000000000000000000000042
:20201F003030303030303030303030303133B6FC78300000000000000000000000000000A3
:20203F0000000000000000000603010000000000000000FF0101010101010101010101016C
:20205F00010101010101010101010101010101010101010101010101010101010101010141
:20207F000101FFFF00000000FC1211111112FC000000007F80000000807F000000010101F1
:20209F00FF01010100007C8201010101827C00000000FFFF8080808081808080808081801F
:2020BF008080808080818181808080808080808081808080808080808181818180808080F9
:2020DF008080FFFF01010101010101010101010101010101010101010101010101010101C7
:2020FF00010101010101010101010101010101010101FFFF00008E11111111E20000FF11ED
:20211F00111101010000FF111131518E0000FF0000FF111111010100008E11111111E20064
:20213F000000FFFF8080808181818180808081818181818180808180808080818080818075
:20215F00808181818181818080808181818180808080FFFF0101010101010101010101014C
:20217F00010101010101010101010101010101010101010101010101010101010101010120
:20219F000101FFFF00FF111111110E0000FE11111111FE0000FF111131518E0000FE11113E
:2021BF001111FE0000FF000000000000FF0000000000FFFF808180808080808080818080E2
:2021DF008080818080818080808081808081808080808180808181818181808081818181D2
:2021FF008180FFFF01010101010101010101010101010101010101010101010101010101A5
:20221F00010101010101010101010101010101010101FFFF0000000000000000000000008F
:20223F0000000000000000000000000000000000000000000000000000000000000000007F
:20225F000000FFFF8080808080808080808080808080808080808080808080808080808061
:20227F00808080808080808080808080808080808080FFFF01010101010101010101010135
:20229F000101010101010101010101010101010101010101010101010101010101010101FF
:2022BF000101FFFF0000000001010101FF01010101000000FF1111113151910E00000000A5
:2022DF00FF00000000FF01020408040201FF00000000FFFF808080808080808081808080CD
:0122FF00805E
:202300008080808180808080808081808080808180808080818080808080808081808080B8
:2023200080FFFF010101010101010101010101010101010101010101010101010101010102
:202340000101010101010101010101010101010101FFFF00FF1111111111EE000000FF002D
:202360000000FC1211111112FC0000008E1111111111E2000000007C824121110905827CCC
:2023800000FFFF8081818181818180808080818080808180808080808180808080818181B3
:2023A0008181808080808080808181818181808080FFFF010101010101010101010101018B
:2023C0000101010101010101010101010101010101010101010101010101010101010101DD
:2023E00001FFFF0000FF01020408040201FF000000FF1111110101000000FF020408102059
:202400004080FF0000007F800000000000807F0000FFFF808081808080808080808180807F
:2024200080818181818181808080818080808080808081808080808081818181818080808F
:2024400080FFFF0101010101010101010101010101010101010101010101010101010101E1
:202460000101010101010101010101010101010101FFFF00FF111131518E000010101010DC
:202480000000FF10101010FF00007C82010101827C0000FF000000000000FF010101827C00
:2024A00000FFFF808180808080818080808080808080818080808081808080808181818097
:2024C0008080808181818181808081818181808080FFFF0101010101010101010101010168
:2024E0000101010101010101010101010101010101010101010101010101010101010101BC
:2025000001FFFF000000000000FF111111110E000000FE11111111FE000000008E1111116A
:2025200011E20000008E11111111E2000000000000FFFF8080808080808180808080808075
:20254000808081808080808180808080808181818180808080808181818180808080808071
:2025600080FF000000000000000000000000000000000000000000000000000000000000DC
:2025800000000000000000000000000000000000000000000000000000FF111111110100F7
:2025A0000000FE1111111111FE0000000000FF000000000000FF00000000000000000000CC
:2025C0000000000000000000000100000000000000000100000000000100000000000100F7
:2025E000000000000001010101010100000000000000FF01010101010101010101010101C9
:2026000001010101010101010101010101010101010101010101010101010101010101019A
:2026200001FFFF0000FC1211111112FC00003F40800080403F00007C820101011111F20039
:20264000000000000000008E111111111111E20000FFFF8080818080808080818080808024
:2026600080818080808080808081818181818080808080808080808081818181818180804E
:2026800080FFFF01010101010101010101010101010101010101010101010101010101019F
:2026A0000101010101010101010101010101010101FFFF0000FC1211111112FC00003F403D
:2026C000800080403F00007C820101011111F20000000000000000FF111111111101010010
:2026E00000FFFF808081808080808081808080808081808080808080808181818181808054
:202700008080808080808081808080808080808080FF000000000000000000000000000039
:2027200000BE000000000000000000000700070000000000000000143E143E140000000015
:202740000000004C92FF926400000001000000CC326E9A66000000000000006C92AA44A0AD
:202760000000000000000000000700000000000000000000007C8201000000000001000052
:2027800001827C000000010000000014083E08140000000000000010107C10100000000007
:2027A00000000000C0C00000000002010000001010101010000000000000000000C0C000C6
:2027C0000000000000000000C0300C03000300000000007C8282827C000000000000000079
:2027E0000084FE800000000000000084C2A2928C00000000000000448292926C000000007B
:202800000000003028A4FEA0000000000000004E8A8A8A72000000000000007C8A8A8A7036
:20282000000000000000000202E2120E000000000000006C9292926C000000000000001CE8
:20284000A2A2A27C000000000000000000D8D8000000000000000000D8D8000000000201B3
:20286000000000001028448200000000000000282828282800000000000000008244281094
:20288000000000000000000402A2120C000000000000007CAABAA21C00000000000000FCD8
:2028A000121212FC00000000000000FE9292926C000000000000007C828282440000000080
:2028C000000000FE8282827C00000000000000FE9292928200000000000000FE121212028C
:2028E000000000000000007C8282927400000000000000FE101010FE000000000000000026
:2029000082FE820000000000000000608080807E00000000000000FE10284482000000005B
:20292000000000FE8080808000000000000000FE041804FE00000000000000FE040810FE65
:20294000000000000000007C8282827C00000000000000FE1212120C000000000000007C3D
:2029600082C2827C00000000000100FE121212EC000000000000004C92929264000000008E
:202980000000000202FE0202000000000000007E8080807E000000000000003E4080403E39
:2029A00000000000000000FE403040FE00000000000000C6281028C6000000000000000E71
:2029C00010E0100E00000000000000C2A2928A8600000000000000000000FF0100000000E3
:2029E000010100030C30C000000000000003000001FF0000000001010000000804020408B7
:202A000000000000000080808080808000000000000000000102040000000000000000703F
:202A2000888848F800000000000000FE8888887000000000000000708888885000000000E8
:202A400000000070888888FE0000000000000070A8A8A8B0000000000000000008FC0A0248
:202A60000000000000000070888888F800000202020100FE080808F0000000000000000049
:202A800088FA8000000000000000000008FA000000020201000000FE203048800000000017
:202AA0000000000082FE800000000000000000F808F808F000000000000000F8100808F01E
:202AC00000000000000000708888887000000000000000F88888887000030000000000700B
:202AE000888888F800000000000300F8100808100000000000000090A8A8A848000000004B
:202B000000000000087E88800000000000000078808040F800000000000000384080403807
:202B20000000000000000078807880780000000000000088502050880000000000000078E5
:202B4000808080F80000020202010088C8A8988800000000000000000010EF0000000000DF
:202B60000102000000FF0000000000010000000000EF10000000020100000004020604023E
:202B8000000000000000000000000000000000000000007985FF8579000202030202009C93
:202BA000E202E29C000000000000007C8282824400000000000000FE929392820000000036
:202BC000000000FF040911FE000000000000007C8282827C000000000000007E8080807EE0
:202BE0000000000000000070888A49F8000000000000007088894AF80000000000000070DF
:202C00008A894AF800000000000000708A884AF80000000000000072898B4AF900000000D2
:202C2000000000708A8D4DFA0000000000000070888888900000020100000070A8AAA9B010
:202C40000000000000000070A9AAA8B00000000000000070AAA9AAB00000000000000070CC
:202C6000AAA8AAB0000000000000000000FA0100000000000000000001FA000000000000B2
:202C80000000000002F90200000000000000000002F8020000000000000000FA110B0AF12A
:202CA0000000000000000070888A89700000000000000070898A88700000000000000070AE
:202CC0008A898A7000000000000000708A888A700000000000000072898B8A7100000000EA
:202CE00000000078808241F80000000000000078818240F80000000000000078828142F8B9
:202D00000000000000000078828042F80000000000000000043E04000000000000000000B9
:202D200006090906000000000000007088FC885000000001000000FE8989824000000000D6
:202D4000000000CD122448B300000101010000387C7C7C38000000000000000E11FF11FF60
:202D600000000000000000FC02819966000100000000007A2A5244380000000000000092D0
:202D8000AAAA4438000000000000020E020E0C0E0000000000000000000402000000000023
:202DA0000000000002000200000000000000002868382C2800000000000000FC12FE9282D3
:202DC000000000000000007CA2928A7C0000000000000000000E0A0E000000000000009087
:202DE00090FC909000000000000000008894A200000000000000000000A2948800000000AB
:202E00000000002A2CF82C2A00000000000000F880807880000300000000000060928C7825
:202E20000000000000000082C6AA92C60000000000000002FE02FE0200000000000000083E
:202E4000F808F808000000000000000000FF000000020201000000004C52525E0000000020
:202E6000000000004C52524C00000000000000BCC202C2BC000000000000007088F8A8B0D0
:202E8000000000000000000402A2120C0000000000000060908A8040000000000000000032
:202EA0000000FA000000000000000010101010700000000000000020C0300C040000000048
:202EC0000000000008FF080000020201000000502828281400000000000000C0B08CB0C096
:202EE000000000000000006090006090000000000000009060009060000000000000008092
:202F00000080008000000000000000000000000000000000000000FC121312FC0000000082
:202F2000000000FD121313FC000000000000007D8283837C000000000000007C82FE9282CF
:202F400000000000000000708870A8B0000000000000000010101000000000000000101061
:202F60001010101000000000000000000C020C0200000000000000000806080600000000D9
:202F800000000000000C0A000000000000000000000A060000000000000000101054101077
:202FA0000000000000000010284428100000000000000078828082F80000020202015454BA
:202FC000545454540000000000000000FEFEFEFE0000000000000000FEFEFEFE00000000B1
:202FE00000000000FEFEFEFE0000000000000000FEFEFEFE0000000000000000FEFEFEFEE9
:203000000000000000000000FEFEFEFE0000000000000070898A48F80000000000000000F5
:20302000FEFEFEFE0000000000000000FEFEFEFE0000000000000000FEFEFEFE00000000A8
:20304000000000708A884AF80000000000000000FEFEFEFE0000000000000000FEFEFEFEBC
:203060000000000000000070888888500000050200000070A9AAA8B0000000000000007066
:20308000A8AAA9B00000000000000070AAA9AAB00000000000000070AAA8AAB0000000004C
:2030A00000000000FEFEFEFE0000000000000000FEFEFEFE0000000000000000FEFEFEFE28
:2030C00000000000000000008AF882000000000000000000FEFEFEFE00000000000000FAFA
:2030E00011090AF10000000000000000FEFEFEFE0000000000000000FEFEFEFE00000000CB
:2031000000000000FEFEFEFE0000000000000000FEFEFEFE0000000000000000FEFEFEFEC7
:203120000000000000000000FEFEFEFE0000000000000000FEFEFEFE00000000000000009F
:20314000FEFEFEFE0000000000000000FEFEFEFE0000000000000000FEFEFEFE0000000087
:2031600000000078828042F80000000000000000FEFEFEFE0000000000000000FEFEFEFEAB
:203180000000000000000000FEFEFEFE000000000000000000000000000000000000000037
:2031A00000000000000000000000000000000000000000000000000000000000000000000F
:2031C0000000000000000000000000000000000000000000000000000000000000000000EF
:2031E0000000000000000000000000000000000000000000000000000000000000000000CF
:203200000000000000000000000000000000000000000000000000000000000000000000AE
:2032200000000000000000000000000000000000000000000000000000000000000000008E
:2032400000000000000000000000000000000000000000000080408000000002010000002B
:2032600001020080808080808000000000000000000000000000000000000000181800001B
:2032800000000000C03800000000700E01000000000000F0F80808F8F000000F1F10101F6A
:2032A0000F00001010F8F80000000000001F1F0000000030380888F87000001C1E131110E3
:2032C00010000010188888F8700000081810101F0F00000080E030F8F80000030302021F27
:2032E0001F0000F8F8888888080000091910101F0F0000F0F88888981000000F1F11101FA1
:203300000F0000080808C8F8380000001C1F030000000070F88888F87000000F1F10101F03
:203320000F0000F0F80888F8F00000081911111F0F000000000000000000000000000000AD
:203340000000000000000000000000000000000000000080C0E0703010000103070E1C1850
:20336000100000000000000000000000000000000000103070E0C080000010181C0E070311
:20338000010000F01808080818F00011130C000C131100C000000000C00000FF10101010E5
:2033A0000F0000C040404040800000FF101010100F0000C0804040408000001F00000000D1
:2033C0001F00C04040C0404080001F00001F00001F0000F8000000800000001F02020508C9
:2033E0001000F81020C02010F8001F00000000001F00E010080808102000070810101009EF
:20340000070000F8888888880808001F00000000000000F88080808080F8001F00000000CF
:20342000001F00000040404040C0000000181412111070C000000000C0700001071C1C07A7
:2034400001000000000000000000000000000000000000000000000000000000000000006B
:2034600000000000000000000000000000000000000000000000000000000000000000004C
:2034800000000000000000000000000000000000000000000000000000000000000000002C
:2034A00000000000000000000000000000000000000000000000000000000000000000000C
:2034C0000000000000000000000000000000000000000000000000000000000000000000EC
:2034E0000000000000000000000000000000000000000000000000000000000000000000CC
:203500000000000000000000000000000000000000000000000000000000000000000000AB
:2035200000000000000000000000000000000000000000000000000000000000000000008B
:2035400000000000000000000000000000000000000000000000000000000000000000006B
:2035600000000000000000000000000000000000000000000000000000000000000000004B
:2035800000000000000000000000000000000000000000000000000000000000000000002B
:2035A00000000000000000000000000000000000000000000000000000000000000000000B
:2035C0000000000000000000000000000000000000000000000000000000000000000000EB
:2035E0000000000000000000000000000000000000000000000000000000000000000000CB
:203600000000000000000000000000000000000000000000000000000000000000000000AA
:2036200000000038383838383838383838000000000000000000000000000000000000005A
:20364000000000000000000000000000000000000000000000000F0F0F0F0000000000002E
:203660000000000000C0F0300000000000C0F03C0F0300000000000C0F030000000000004E
:20368000000000C0E0301818181830E0C00000FFFF000000000000FFFF000003070C1818E8
:2036A00018180C07030000000080C0E07038F8F800000000010101000000FFFF000000000B
:2036C0000000000000001F1F000000C0E0303818183830E0C0000000000080C0E070381F85
:2036E0000F00001C1E1F1B19181818181800006070381818181838F0E00000000000181816
:20370000183C7EE7C30000060E1C181818181C0F070000000000000080C060F8F80000C01B
:20372000F0F8CCC6C3C1C0FFFF000000000000000000001F1F0000F8F818181818181818F7
:203740001800001F1F180C0C0C0C1CF8F00000060E1C181818181C0F070000E0F0381818CD
:2037600018183870600000FFFF303818181838F0E00000070F1C181818181C0F070000187F
:20378000181818181898F878180000000080E0781E070100000000181E0701000000000055
:2037A000000000E0F0381818181838F0E00000C3E77E3C18183C7EE7C30000070F1C18183F
:2037C00018181C0F070000E0F0381818181838F0E00000070F1C181818181CFFFF00000665
:2037E0000E1C181818181C0F070000000000000000000000000000000000000707070000F8
:20380000000000000000000E0E0E0000000000000000000000000000000000000000000777
:2038200007070000000000000080407C3C1C0000000000000000000080C0E0602000003016
:2038400078FCCE87030100000000000000000103070E1C181000000000000000000000003E
:203860000000000707070707070707070700000E0E0E0E0E0E0E0E0E0E00002060E0C080D6
:2038800000000000000000000000010387CEFC7830000010181C0E07030100000000ED33AE
:2038A000EC33601004700FED547F7005740292E0227404220422E422023C79E86480F8E98D
:2038C00033E83360110460F0ED33EC337009E8FCE9FDEAFEEBFF220460DED3EB9FEA9EE94F
:2038E0009DE8C2E78CF0C2F795F0400CE8CCF8E9CDF9EACEFAEBCFFB123C4485D0F058049F
:20390000700320D5B3E80470075002B2D5023C8392D5EC0460F7E4CCC0E0C398F8603B940F
:20392000186008400DD0E0FB023C5BE4FBFAC9FC8028E830E406E4C9FBE4CAFCE830E305DC
:20394000E4C9CACBFCE854076010F8C3E913F9EA13FAEB13FBEC13FCD8F130F52FC3E49C7B
:20396000FCEF9BFFEE9AFEED99FDD0E0FBEF4E4D4C701222DB03023C80EC2CFCEF33FFEED5
:2039800033FEED33FDED30E7EB023C5BEF2BFFEE3AFEED39FDD0E0FB50130BBB0003023CDA
:2039A00083ED13FDEE13FEEF13FFEC13FC023C5BEC4D6011E8497017ED33EC3304600DE4FD
:2039C000FCFFFEFD22E933E8330470F8023C79123C4458046009E4CC2481500628500902F0
:2039E0003C83284003023C80C0E0EB4A7044B98006D0E0FB023C6FEF4E701CBD8008EBFFC7
:203A0000EAFEE9FD80EBE98DF0A4FEE5F0023A99E9CDF9EAFEEBFFEF89F0A4FCE5F0CE8906
:203A2000F0A42EFFE435F0CD89F0A42DFEE435F08067EF4E7005BD80D780C3EF8BF0A4ACF4
:203A4000F0EE8BF0A42CFCE435F0F8EF8AF0A42CE5F038FCE433CB8DF0A42CFCE5F03BF8CB
:203A6000EE8AF0A42CFCE5F038F8E433CF89F0A42CFCE5F038CF3400CE89F0A42FFFE5F0E4
:203A80003EFEE433C98DF0A42EFEE5F039CD8AF0A42FFFE5F03EFEE43DFD33D0E0FB500732
:203AA0000BBB000F023C83EC2CFCEF33FFEE33FEED33FD023C5B023C83EC5D046005E859B2
:203AC000047003023C79123C44580460F6EC4860F2EC7004FDFEFF22C860DB2481C85009A9
:203AE000C39860025006023C809850CAF582E9294B4A7005AB82023C6F75F0007C1A7880E3
:203B0000C3EF9BEE9AED99400DC3EF9BFFEE9AFEED99FDE842F0DC23ACF0D0E0FFD0E0FE96
:203B2000D0E0FDAB8220E7101BEB60BAEC2CFCEF33FFEE33FEED33FD023C5BE803F830E770
:203B400005C0F075F000EF2FFFEE33FEED33FD40B830E7C280AA74F8CC6480CCC86480C89B
:203B6000F58204604FC3EB9FF5F0EA9E42F0E99D42F0E89C45F0603C501DE5825FFFE58289
:203B8000D313CB5BCBF42B5582FB50280ABA002409B9002008801DE5825BFBE582D313CF9D
:203BA0005FCFF4C3132F5582FF50090EBE00050DBD00010CC3EB9FF5F0EA9E42F0E99D4253
:203BC000F0E89C45F06007CC4820E701B3EC2275F020800E75F010800575F0087D007E0083
:203BE0007F003392D530D5031240D0EC334010EF33FFEE33FEED33FDEC33FCD5F0ED22E5E2
:203C0000F0247EA2D513CC92E7CDCEFF22EDD2E7CD33EC3392D524814006E4FFFEFDFC2274
:203C2000FCE4CFCECDCC24E0501174FF80EDC3CC13CCCD13CDCE13CECF13CF0470F030D545
:203C4000DE0240D0E9D2E7C933E833F892D5EDD2E7CD33EC33FC5002B2D522EC30E7100F7E
:203C6000BF000C0EBE00080DBD00040BEB6014A2D5EB13FCED92E7FD2274FFFCFDFEFF22EC
:203C8000E480F8A2D574FF13FC7D80E480EFED33EC33600A047003BD8004ECB2E7FC22F982
:203CA00020E72824F950037907E4F42402FB18DBFDE624FB5014E9600DE4F618E604F6B4B7
:203CC0000A08E4F6D9F57401F60A22C2D522ED33EC3392D5FA602AB4FF33EDC2E77BFF605A
:203CE000067A3C79F3E4227A3C79FC20D5047A3C79F7224E614E002B494E46002D494E461B
:203D000000E47A08F608DAFC7B00740722E8C0E0ECC0E0EDC0E0EEC0E0EFC0E0EA75F01034
:203D2000A4CAABF075F04DA42BFBE435F0FCEA2410FAEB34C5FBEC34D9FCEDC2E7FF75F013
:203D400056A4F42411C5F0F434C58FF0A42AE5F03BE43CF620E714123E4ED0E0FFD0E0FE15
:203D6000D0E0FDD0E0FC123AB98014F404123E4ED0E0FFD0E0FED0E0FDD0E0FC1239B0D03A
:203D8000E0F8E6FAEDD2E7CD33EC332482FBE4C3CF33CFCE33CECD33CD33DBF37B0775F009
:203DA0000A846004F6081B0AE5F0F6088FF0740AA4FFACF08EF0740AA42CFEACF050010C1C
:203DC0008DF0740AA42CFDE435F0F608DBDE740722C0E0EFFBEEFAEDF9ECF81239B0D0E0D7
:203DE000F5F0EFFBEEFAEDF9ECF8124165A3A3A3A3E8C0E0E9C0E0EAC0E0EBC0E0C0F01216
:203E000039B0124181A3A3A3A31238BFD0F0D0E0FBD0E0FAD0E0F9D0E0F8D5F0D4223F8070
:203E200000004120000042C80000447A0000461C400047C35000497424004B1896804CBEF9
:203E4000BC205A0E1BCA6753C21C749DC5AEFB60065407601C2323123E7CEB5438600912E1
:203E60003E68123E771239B0ECF8EDF9EEFAEFCB22EB123E7780F1543803241C903E1EFE70
:203E800093FC0EEE93FD0EEE930ECE93FF22BB010689828A83E0225002E722BBFE02E322F1
:203EA00089828A83E49322BB010CE58229F582E5833AF583E0225006E92582F8E622BBFEC7
:203EC00006E92582F8E222E58229F582E5833AF583E49322BB010689828A83F0225002F761
:203EE00022BBFE01F322EF8DF0A4A8F0CF8CF0A428CE8DF0A42EFE22BC000BBE0029EF8DAB
:203F0000F084FFADF022E4CCF875F008EF2FFFEE33FEEC33FCEE9DEC984005FCEE9DFE0F1B
:203F2000D5F0E9E4CEFD22EDF8F5F0EE8420D21CFEADF075F008EF2FFFED33FD4007985047
:203F400006D5F0F222C398FD0FD5F0EA22C2D5EC30E709B2D5E4C39DFDE49CFCEE30E71549
:203F6000B2D5E4C39FFFE49EFE123EF8C3E49DFDE49CFC8003123EF830D507C3E49FFFE4F0
:203F80009EFE22C5F0F8A3E028F0C5F0F8E582158270021583E038F022EF2BFFEE3AFEED10
:203FA00039FDEC38FC22E88FF0A4CC8BF0A42CFCE98EF0A42CFC8AF0EDA42CFCEA8EF0A4F9
:203FC000CDA8F08BF0A42DCC3825F0FDE98FF0A42CCD35F0FCEB8EF0A4FEA9F0EB8FF0A442
:203FE000CFC5F02ECD39FEE43CFCEAA42DCE35F0FDE43CFC2275F008758200EF2FFFEE3364
:20400000FECD33CDCC33CCC58233C5829BED9AEC99E58298400CF582EE9BFEED9AFDEC9950
:20402000FC0FD5F0D6E4CEFBE4CDFAE4CCF9A88222B800C1B90059BA002DEC8BF084CFCE93
:20404000CDFCE5F0CBF97818EF2FFFEE33FEED33FDEC33FCEB33FB10D703994004EB99FB9B
:204060000FD8E5E4F9FA227818EF2FFFEE33FEED33FDEC33FCC933C910D7059BE99A400761
:20408000EC9BFCE99AF90FD8E0E4C9FAE4CCFB2275F010EF2FFFEE33FEED33FDCC33CCC885
:2040A00033C810D7079BEC9AE899400AED9BFDEC9AFCE899F80FD5F0DAE4CDFBE4CCFAE4C3
:2040C000C8F922EF5BFFEE5AFEED59FDEC58FC22C3E49FFFE49EFEE49DFDE49CFC22EB9F5E
:2040E000F5F0EA9E42F0E99D42F0EC6480C864809845F022EB9FF5F0EA9E42F0E99D42F01D
:20410000E89C45F022E8600FECC313FCED13FDEE13FEEF13FFD8F122E86010ECA2E713FCEB
:20412000ED13FDEE13FEEF13FFD8F022E8600FEFC333FFEE33FEED33FDEC33FCD8F122BB60
:20414000010789828A830241915005E9F80244EFBBFE05E9F80244FB22E0FCA3E0FDA3E01F
:20416000FEA3E0FF22E493FC740193FD740293FE740393FF22E0F8A3E0F9A3E0FAA3E0FBA4
:2041800022E493F8740193F9740293FA740393FB22ECF0A3EDF0A3EEF0A3EFF022A8828533
:2041A00083F0D083D0821241B41241B41241B41241B4E473E493A3C583C5F0C583C8C58206
:2041C000C8F0A3C583C5F0C583C8C582C822A42582F582E5F03583F58322FAE6FB0808E68C
:2041E000F925F0F618E6CA3AF622E493FB740193FA740293F922D083D082F8E493701274FF
:204200000193700DA3A393F8740193F5828883E4737402936860EFA3A3A380DFD083D0822E
:20422000F8E4937012740193700DA3A393F8740193F5828883E473740293B5F00674039398
:204240006860E9A3A3A3A380D8E3F5F009E208B5F06D606B80F3E3F5F009E608B5F060609A
:204260005E80F387F009E608B5F054605280F487F009E208B5F048604680F488828C8387CF
:20428000F009E0A3B5F038603680F488828C8387F009E493A3B5F027602580F388828C832B
:2042A000E3F5F009E0A3B5F016601480F388828C83E3F5F009E493A3B5F004600280F20285
:2042C0004374808580E7808E80D2803C8015806C807E809B80B5808B80A1804F8070803A2B
:2042E00002438089828A83ECFAE493F5F0A3C8C582C8CCC583CCE493A3C8C582C8CCC58340
:20430000CCB5F070606E80E189828A83E493F5F0A3E208B5F05E605C80F289828A83E0F56E
:20432000F0A3E608B5F04D604B80F389828A83E0F5F0A3E208B5F03C603A80F389828A837C
:20434000E493F5F0A3E608B5F02A602880F2805389828A83ECFAE493F5F0A3C8C582C8CC34
:20436000C583CCE0A3C8C582C8CCC583CCB5F004600280E27FFFB5F0020F2240027F012248
:2043800089828A83ECFAE0F5F0A3C8C582C8CCC583CCE0A3C8C582C8CCC583CCB5F0D560EC
:2043A000D380E389828A83ECFAE0F5F0A3C8C582C8CCC583CCE493A3C8C582C8CCC583CCD9
:2043C000B5F0B160AF80E288F0ED2402B4040050A3F582EB2402B404005099232345822387
:2043E0009042C273E709F60870FA8046E709F20870FA803E88828C83E709F0A370FA807E82
:20440000E309F60870FA8076E309F20870FA806E88828C83E309F0A370FA806289828A8318
:20442000E0A3F60870FA805689828A83E0A3F20870FA804A80D280FA80C680D4806580F235
:204440008031801080A680EA809A80A880DA80E280CA803189828A83ECFAE493A3C8C5826B
:20446000C8CCC583CCF0A3C8C582C8CCC583CC70E9800D89828A83E493A3F60870F9ECFAE5
:20448000A9F0EDFB2289828A83ECFAE0A3C8C582C8CCC583CCF0A3C8C582C8CCC583CC7087
:2044A000EA80DD89828A83E493A3F20870F980CE88F0ED2402B4040050C4F582EB2402B43F
:2044C000040050BA232345822390443473F8BB010DE58229F582E5833AF583E8F0225006F1
:2044E000E92582C8F622BBFE05E92582C8F222ECF608EDF608EEF608EFF622ECF208EDF295
:2045000008EEF208EFF2227A58798378237C167D017BFF1244B07550017551157552CA7B02
:20452000017A167923229015831241598F618E608D5F8C5E9015451241598F658E648D6338
:204540008C629015491241598F698E688D678C66227F007E809011CD124175023B56E47D36
:2045600010FFFE7CC1AB4EAA4DA94CA84B023B561241751238BB9017961241750239B012B7
:2045800041917B007A00793BAF39EF3395E0FEEF2278237C167D017BFF0244B090157312CD
:2045A0004159A804A905AA06AB070239B078237C167D017BFF0244B02401FFEE3480FEEDEE
:2045C0003401FDE43CFC2278237C167D017BFF0244B0AF4AAE49AD48AC47E4FBFA1239B0A4
:2045E0008F4A8E498D488C4722124191AE4CEE3395E0FDFC2278237C167D017BFF0244B097
:2046000078CA7C157D017BFF1244B0900003E075F007A4FFC374989FFFE495F0FE7B017A7D
:204620001579CA22E4FFFE7C42AB14AA13A912A811023B5635F07552FFF5538954E4FBFAF5
:20464000797A784490178E124159123AB98F588E578D568C552212415990179A124175025C
:2046600038BF7BF47AFD79347840124159123AB98F148E138D128C112278237C167D017B7F
:20468000FF0244B0756A01756B15756C73756D01756E15756F9090157B02415978237C16C4
:2046A0007D017BFF0244B07B00754400754502C2287F0A7EFC7D007C0022AF4AAE49AD482F
:2046C000AC472278237C167D017BFF0244B0EF25E025E024ADF582E43454F583024165E5F8
:2046E0003324FFFDE434FFFC123BD48F568E558D548C537F007E007D207C4122E4FFFEABA6
:204700004AAA49A948A847023B56900003E0A42428FFE435F0FE7B017A11795D227A54793A
:204720006378CA7C157D017BFF0244B0A804A905AA06AB07E4FFFE7D807C3F2278D47C1501
:204740007D017BFF1244B07550017551167552237B017A1579D4227E607F007D017C0022DC
:2047600025E025E02491F582E4340FF583124191901590024159AF4EAE4DAD4CAC4BE4FBE8
:20478000FA1238BB8F4E8E4D8D4C8C4B22E4FBFA797A78449011CD0241597E1E7F5A7567AD
:2047A000D4756868E4F5697B187D1C227A00795FFBF567756801C22F22E52AF07B007A00C2
:2047C000792A755F00756001C22D22E4FFFE7D807C4FAB34AA33A932A831023B56901773B5
:2047E000E0FCA3E0FDE4123BD4E4FBFA227550FF75515275525022901147E0FF3395E0FEDB
:20480000EF64034E2212419190146612415979A07834E4FBFA0239B078237C167D017BFF8A
:204820000244B0901654E0FFFDC3740A9D7480F898221238BB8F598E588D578C5685516158
:20484000855060854F5F854E5E8555658554648553638552628F698E688D678C66756A011B
:2048600022754E01754F157550837B017A15797B22901594E0FCE4123BD9A804A905AA06E7
:20488000AB0722AF14AE13AD12AC1122C22F7E847F007D017C002275500175511175525DD3
:2048A000227E317F927B107D08227E277F127B0B7D0622E52A75F00CA4FD754E01227A0002
:2048C00079317B00755F00756004C22D227D01AB75AA74A973A872C30240F47C007D0612F9
:2048E0003EE674792FF974563E7552FFF553895422901543E0FEA3E0FF7B507AC3E4FCFD3D
:20490000F9F8C30240DE90179A0241919015491241598F618E608D5F8C5E221241598F659E
:204920008E648D638C6222E54E25E025E024D2F582E43411F58322E54E25E025E0248EF534
:2049400082E43413F58322E54E25E025E024AAF582E43412F58322E54E25E025E0246BF509
:2049600082E43414F583227E1C7FC275671075681A7569017B107D3322785D7C117A51794F
:20498000E87D017BFF0244B07B00754400754501C22822901573024159754E01754F157580
:2049A00050497B017A1579452225E025E02461F582E43416F58322755B01755A0075590136
:2049C000227557017556007555D9221241598F618E608D5F8C5E22E4FFFEAB43AA42A94131
:2049E000A840023B56E4FBFA7920784090FC17124165123AB97B007A20790D78461239B05E
:204A00009011C9229011D1E0FDFBC3740A9B7480F89822C3E5549558FFE5539557FEE552FD
:204A20009556FDE5519555FC7801124118EC023BCFE0FD7C00901382E0FF3395E0FE123E43
:204A4000E6EF2545FFEC3EFE7D24023EE6C22F7E8C7F007D017C0022EFFD3395E0FC74CAC5
:204A60002DF58274153CF583221241599010F6024191AF33EF3395E0FEC3EF22AF69AE68A4
:204A8000AD67AC660239B0E4901773F0A3F0229010FBE0D3940074809480228F338E328D47
:204AA000318C30AF37AE36AD35AC34227D01AB75AA74A973A872C30240F4901650E0FF7E1D
:204AC00000D394057480948022FD3395E0FCD3ED9400EC6480948022E4FBFA7920784122F8
:204AE00012415990114D124175023AB9900003E0FFE52D8FF0A42428FFE435F0FE7BFF7A72
:204B00005179EB22E4FFFE7D7A7C442278237C167D017BFF22FC7B00756700756804C22F98
:204B200022AF4EAE4DAD4CAC4B22ECFF3395E0FEEF25E0FFEE33FE22AB3CAA3BA93AA839F4
:204B4000023B56E590F4FDA2B6B3E433FC530401ECC454F0FBED54074B22F58274133AF515
:204B60008302415974FC2EF582E43410F583E510F09010FAE004F0E51022F5687569017B40
:204B8000187D302290176B1241590238BB90161EE0640122EFFD3395E0FCED22D3EF941645
:204BA000EE648094802274762538F582E43417F58322E4FBFA7980783F22901072E0FF7E4C
:204BC0000022C3943674809480227D747F007E247C492278357C007D007BFF0244B07BDB97
:204BE0007A0F79C9783F0239B0AB5DAA5CA95BA85A0239B0FB12389EFFEBC394027480949B
:204C00008022AF69AE68AD67AC660239B0901773E0FEA3E0FF227B017A177939221241657E
:204C20009011CD024191AF2BEF3395E0FE74392FF58274173EF583E022FC748E2DF5827417
:204C4000173CF583227B6F7A127983783A2278067C167D017B017A17798E22AF45AE44ADCA
:204C600043AC4222756A01756B15756C73756D01756E15756F90229010E912417590138AC9
:204C80000241597B007A247974784922D394017480948022E4FFFEAB43AA42A941A840026E
:204CA0003B56E4FBFA797A78442274392FF582E43417F583E022E4FBFA79C8784222EEFBDE
:204CC0003395E0FA74CA2BF58274153AF58322E55924FFFFE55834FFFEEFF4FFEEF4FE2243
:204CE000FCEF24FFFFEE34FFFEED34FFFDEC34FF22D22B7D7E7F66229010FAE0FEC394322A
:204D000074809480227B00754400754504C22822901388E0FFA3E09015C4CFF0A3EFF02212
:204D20007F007E807C449015C622E4F5557D487FE47EFF2290179C1241919017A0024159AA
:204D4000E5532401FFEE22E55324D9FFEE22E54D2401FFEE22E54D24D9FFEE2275313FFB1F
:204D60007A007931F567756804C22F22E4F54AF549F548F547227BFF7A59797D7555017D38
:204D800023E4FFFE22EF3395E0C36480948022EF3395E0FED3EF9400EE64809480227D1CED
:204DA0007F007E407C46227D01AB67AA66A965A864C30240F4E02431F582E43411F583E0F2
:204DC000F5102225E025E02491F582E4340FF583223EF583D3740193953EE493953D2225C1
:204DE000E025E02474F582E43411F5832225E025E024A0F582E43411F58322AF49AE48AD59
:204E000047AC46227C3FAB41AA40A93FA83E023B56785D7C117D017BFF22AF43AE42AD41F9
:204E2000AC4022AF65AE64AD63AC62227B017A15799A22901545024159901162E004F090D1
:204E400010FBE014F022853358853257853156853055228514588513578512568511552211
:204E60009015C602419190116D024159E4255CFFE55B22901543E0FCA3E0FDE4023BD4E466
:204E8000F5527B227D0E7F43223EF583E53AF07B007A00793B22FBAA062491F582740F3A9B
:204EA000F583227F9A7E997C402275500075510075523522AB30AA2FA92EA82DC30240F448
:204EC000E4FFFE7D207C4122E4FFFE7D807CBF22E4F07B017A17797622E4F556F555755406
:204EE0004075534022E4FBFA78420239B07B667A667986783F0239B0124191AF47AE46ADED
:204F000045AC4422783C7C007D007BFF0244B0AF4FAE4EAD4DAC4C024191F582E43410F5C9
:204F20008322F582E43410F58322C3E53A6480F8E539648098229436EE6480948022EF3325
:204F400095E0FEFDFCE42FFFEE221239B08F438E428D418C4022AB7BAA7AA979A878023AA2
:204F6000B9AF65AE64AD63AC620239B0C2AFE4F584FFFE227BFF7555017D15E4FFFE2290F2
:204F800010E87401F0901653F022C394037480948022A20A922D7B017D16E4FF22EF940A19
:204FA0007480948022D394047480948022124191AF51EF3395E0FE223556FEE43555FDE4BF
:204FC000355422C3E5539549FFE5529548227550FF755154755289227552FF755351755420
:204FE000B9229015BE024191901072E0640222901072E064012275340175330022EFFD3319
:2050000095E0FC22AF53EF3395E022E4FBFAF97840227555017D387F287E00227550FF7596
:20502000515475529B227550FF75515475529D227550FF7551547552A3227550FF7551519E
:205040007552E822E49011C4F0901652F022901072E0640422755D01755E15755F49227551
:205060005D01755E15755F83229015730241757550FF755152755274227B007A00793522A3
:20508000901466024191753402753718229010ED024191900F8D0241919010690241911251
:2050A00041599011510241911241599011940241919015C60241597555017D4E7F667E00DB
:2050C000227555017D187FA27E00227555017D287FA27E00229010E9124159901555227B90
:2050E000007A00793E227550FF7551537552452278CA7C157D012224AAF58274123EF5835E
:205100002224D2F58274113EF583222461F58274163EF58322755B01755A0075593622750A
:20512000570175560075550E2275343D75330A7532972253B1CF43B1202253B1CF43B1305A
:20514000227F007E807C0022453620202D3E2032302500453132202D3E20313025004532F5
:2051600034202D3E20352500453438202D3E20322500453936202D3E2031250020315620C7
:205180002020524D53003530306D5620524D53003230306D5620524D53003130306D562098
:2051A000524D530056657273696F6E20003C205043206D6F6465203E0025312E3366004583
:2051C0005250532025750025312E3166004669726D7761726520557064617465004A2025B6
:2051E000750025312E3466002020002C0020315620524D5320003130303000302E3556200D
:20520000524D530035303000302E325620524D530032303000302E315620524D5300313025
:20522000300044432025312E316620560044432025312E336620560044432025312E30660B
:20524000206D410044432025312E3166206D410020004F4E20004F464600506869203D209A
:2052600025312E3366202020005048492025312E336620004400494E44202575004672657D
:20528000713A003130206B487A002031204D487A002025312E3266206D5600202020200096
:2052A0003C20003E20002051203D2025752000206E6F206C696D69742020002051203D2022
:2052C0002575202000417665726167652046415354004176657261676520534C4F57005279
:2052E000257520205525752020492575200020202020202020202020202020002020202082
:205300002020202020202020002D2D2D2D2D2D2D00202020202020200043495220257520BA
:205320002575202575004D487A006B487A00487A200053505F4D4F44452025752025750060
:205340004155544F003D20005120004420003E2031306B0046726571202025312E316620AF
:205360006B487A20200046726571202025312E3166204D487A202000467265712020253144
:205380002E3066204D487A2020200046726571202025312E3066206B487A2020200046726D
:2053A0006571202025312E306620487A202020200046726571202025312E3166204D487A43
:2053C0002020200046726571202025312E3166206B487A2020200046726571202025312E85
:2053E000316620487A202020200073746570203D20302E312056200073746570203D2031EC
:2054000020562020200073746570203D2031206D4120200073746570203D203130206D41D6
:20542000200044432025312E31662056200044432025312E3066206D412000495F535441B5
:2054400054555320257500257520002032002031002025312E3066003C202D203100203EC7
:205460002031003E3130300000660070006E00B50075006D006B004D00470054004F004847
:20548000004600B00041005600332E302E32002C003F00400041004200430044004500464E
:2054A000004700480049004A0080008100424800004270000042C8000042F00000431600F8
:2054C0000043480000437A00004396000043C8000043FA000044160000442F00004448000A
:2054E0000044610000447A00004496000044BB800044FA0000451C4000453B8000457A0052
:2055000000459C400045BB800045DAC00045FA0000460CA000461C4000463B8000466A6027
:2055200000469C400046C3500046EA6000471C400047435000476A60004788B800479C4028
:205540000047AFC80047C3500047EA600048127C00484350004874240048927C0048C35060
:205560000048F4240049127C00492AE60049435000495BBA004974240049927C0049B71B0E
:205580000049F42400006400660069006B006E0071007300760079007C007F0082008500C9
:2055A00089008C008F00930096009A009E00A200A500A900AE00B200B600BB00BF00C400A2
:2055C000C800CD00D200D700DD00E200E800ED00F300F900FF0105010B01120118011F01AF
:2055E00026012D0135013C0144014C0154015C0165016D0176017F01880192019C01A60174
:20560000B001BA01C501D001DB01E701F301FF020B0218022502320240024E025C026B02EF
:205620007A0289029902A902BA02CB02DC02EE0300031303260339034D03620377038D0388
:20564000A303B903D003E80064006E00780082009600A000B400C800DC00F0010E012C01A6
:205660004A0168018601AE01D601FE0230026C02A802EE0334038E03E825312E306600253F
:20568000312E31660025312E32660025312E31660025312E32660025312E33660025312E20
:2056A00032660025312E33660025312E346600000000000000000000000000000000000017
:2056C0000025302E35660025312E33660025312E32660025312E31660025312E30660053EB
:2056E000494E5F4F46530A0000565245460A0000000000434D52520A000000000047335F6E
:2057000043414C0A0000004731305F43414C0A000043414C5F52310A00000043414C5F5291
:20572000320A00000043414C5F52330A00000043414C5F52340A0000005452494D5F530AB8
:205740000000005452494D5F4F0A000000515F4C494D49540A0000534F52545F500A00001B
:2057600000534F52540A000000000041435F4C4556454C0A0044435F424941530A00005211
:20578000554E0A00000000000048414C540A00000000004D4F44455F440A00000054524968
:2057A0004D530A000000005452494D4C0A00000000525F484F4C440A000000555345525F2D
:2057C000460A000000465F564552530A0000004B350A000000000000004B340A0000000077
:2057E0000000004D4F5655500A000000004D4F5644570A00000000444453560A0000000036
:20580000004657555044410A00000053544152540A0000000042415544530A000000005452
:205820005854555044410A0000570A0000000000000000580A0000000000000000590A0062
:20584000000000000000005A0A00000000000000004E425F4C414E470A0000455F54585425
:205860000A00000000415647530A0000000000415647460A0000000000414646470A000097
:205880000000005052494D415220005345434F4E4420005A200051512000444420005048C5
:2058A00049200056782000497820004652455120004443200041432000522D486F6C6420F1
:2058C000004E4449535F5320004656455220004256455220004A200050415220004D4541E6
:2058E000532000494E442000454E4420004D415820004D494E2000474F5F41505020004201
:205900004C4520005244595F54585420004552524F525F5458542000444320302E302056B4
:20592000004156475F5320004156475F46200052554920004C43522D4D6574657220415543
:205940003230313900323032312020204A2E4A2E4175627279004E6F204C616E67756167C7
:2059600065206C6F616465642E205265737461727420696E205043204D6F6465005573658A
:2059800020746865204155323031392070726F672E20746F206C6F6164207468656D005439
:2059A000657874206E6F74206176616C6169626C652E205265737461727420696E20504387
:2059C000204D6F646500FF5148FF5153FF515EFF5168FF5172FF517CFF5186FF5190FF51ED
:2059E0009AE5662452F8E6056622784F3038027852E475F0011241DA023E8E2031EB7F2EB8
:205A0000D2318018EF540F2490D43440D4FF30350BEF24BFB41A0050032461FFE567600235
:205A20001567056AE56A7002056930380D784FE475F0011241DAEF023ED402D9057403D26D
:205A4000388003E4C238F5668B4F8A508951E4F567F569F56AE56760077F20125A1C80F578
:205A60007568FFC232C231C233C234C236C237C2391259EAFF700D3038057F00125A2DAF87
:205A80006AAE6922B4255FC2D5C2351259EAFF24D0B40A00501A75F00A786730D50508B617
:205AA000FF0106C6A426F620D5047002D23480D924CFB41A00EF5004C2E5D235025D1AD293
:205AC0003280C6D23180C0D23380BCD2D580BAD23680B47F20125A1C2033077401B567009B
:205AE00040F11259E1FF125A1C025A55D239D23780951259E1FB1259E1FA1259E1F94A4B61
:205B0000700679117A5E7BFF20332EE567602A7E008E82758300123EA760060EEE656870C0
:205B2000F0C2D5EBC0E0EAC0E0E9C0E0EE125D7AD0E0F9D0E0FAD0E0FB123E8EFF60AAEB99
:205B4000C0E0EAC0E0E9C0E0125A1CD0E02401F9D0E03400FAD0E0FBE5680460DCD568D910
:205B60008087D23380A2125D5D60F7E568700104123C9FA968600DE568600914F568125E10
:205B800004EF60F3EA30E702F404C3995077EAF425680430E701E404F568800D125D5D601C
:205BA000C1EA05682568123C9FEA7865F630E701E4256804D5680420360114125D7AE4C0D0
:205BC000E0125E047865E6601320E70714F6125A04802204F6D0E014C0E07F00125A04E5DF
:205BE0006860071259FB1568800B3036031259FBD0E0025A55D0E00480C5125D5D60A0E58E
:205C00006804123C9F7865EAF6E5682036026001042404125D7A74FF04C0E0125E04125A5C
:205C200004E56820360260031259FBD0E0B568E87F45125A0E7865E67F2B30E7047F2DF4D7
:205C400004C0E0125A1CD0E075F00A84C0F0125A05D0E0125A05025A55791080027908C234
:205C600037C2398008D2D5790A8004790AC2D5E568047002F568E4FAFDFEFF1259E1FC7BE7
:205C8000082032131259E1FD7B1030310A1259E1FE1259E1FF7B20EC3382D592D55013C325
:205CA000E43031069FFFE49EFEE42032039DFDE49CFCE4CBF8C232EC700CCFCECDCCE824E7
:205CC000F8F870F38017C3EF33FFEE33FEED33FDEC33FCEB33FB994002FB0FD8E9EB303293
:205CE00005F8D0E0C448B232C0E00AEC4D4E4F78207B0070C2EAB5680040BCC0E0125D7CB4
:205D0000D0F0D0E0203204C4C0E0C4B232C0F0125A05D0F0D5F0EB025A551241F65AF25387
:205D20005C59585AC34C5ABF425C5D4F5C65445C65495AD8435C6B555B9C465BFA455B6652
:205D4000475E31505AC72D5ACB2E5AEE2B5ACF235AEC205E1A2A5A874800005AE6E568B44B
:205D6000FF037568061259E1FC1259E1FD1259E1FE1259E1FF785E023CCE790AA2D52034E8
:205D800014303609B910020404B9080104A2D52037025001042033689233B567005034C0E2
:205DA000E07F203034197F30A23372377236500F125DD3C233C237C236C2397F30800F3022
:205DC0003603E9C0E0125A1C303603D0E0F9D0E0B567CC3036177F30B9100C125A1C7F586F
:205DE0003035077F788003B90803125A1C3033057F2D025A1C7F202039F87F2B2037F322DF
:205E0000923380CF7F00B407005005245EF8E6FF22286E756C6C2900D2321259E13032F8A8
:205E2000C232786730D50108F6025A872D504349581259E12403B405004001E4905E2C9349
:205E4000125A0D743A125A0DD234756704025C598F42E4F545F546D22FFFFEFDFC12462963
:205E600050028001C39230303011D3E542124F8B4009302E0674FD2542F54212488312DBED
:205E8000F51245E0E543640170277F287E6B7D6E7C4E1246FF601A40181250F07BFF303018
:205EA000067A54795880047A54795E1244B07F0922E543640370157FCD7ECC7DCC7C3D12A6
:205EC00046FF6008400612471D7FFD22E54364027013FFFE7DC87C421246FF600840061293
:205EE000471D7F0022E4FFFEFDFC1246FF602E7D807C3F1246FC50028001C3922F1246BA69
:205F00001290EB1245E07B007A00794B12B5E21245E01246EB129A171245E0800BE4F54E35
:205F2000F54D754C80754B3F202F177D107C411246FC600E400CE54264067006302E037544
:205F40004203124ED9124B2112BE3B123C0D8F44202F0302618DE54364036003026005125F
:205F6000455F6005400302600575450075460212455E70121246BA124CA31245DD754500BF
:205F8000754601025FFAE47D2012456170091246BA124CB7025FF2E4FFFE7D301245637006
:205FA000091246BA124AD9025FF2E4FFFE7D401245636046E4FFFE7D50124563700D124603
:205FC000BA7BCD7ACC79CC783D8027E4FFFE7D60124563700D1246BA7B0A7AD77923783CAB
:205FE0008010E4FFFE7D70124563700B1246BA124C451245DD8003124D6CE4F54EF54D75F9
:206000004C400260B3E543640260030260B9FFFE7DC07CC0124565600540030260B9754524
:2060200000754601E4FFFE7DC07CC012456570091246BA124CA30260A3E4FFFE7DE07CC083
:2060400012456570091246BA124CB70260A3E4FFFEFD12456370091246BA124AD90260A382
:2060600012455E6046E4FFFE7D20124563700D1246BA7BCD7ACC79CC783D8027E4FFFE7D71
:2060800030124563700D1246BA7B0A7AD77923783C8010E4FFFE7D40124563700B1246BAEC
:2060A000124C451245DD8003124D6CE4F54EF54D754C10754BC10261E2E54364017075FF4A
:2060C000FEFDFC1245656002506AE4FFFEFDFC124565700E1246BA124CA31245DD754500DC
:2060E0008037124EC812456570081246BA124CB78011E4FFFEFD7CC0124565700E1246BA6F
:20610000124AD91245DD7545008018E4FFFE7D407CC01245657007F5457546018008124DDA
:206120006CF545754602E4F54EF54D754C40754BC00261E2E5442402603614601D146003E0
:206140000261E2797A78441245D2794078401247767545008542460261E279C87842124584
:20616000D2124B2112500B124781E542240180141246BA124AD81245DD7980783F124776AF
:20618000E5422402F546E433F5450261E2202F52E54414600D1460282402703CE5422402DB
:2061A00080161246BA124AD81245DD124B21124BB2124781E5422401F546E433F5458018F8
:2061C0001246BA124CB61245DD124B2112500B124781754500854246E54364037004F5459C
:2061E000F546AE45AF461248DB854A5885495785485685475512461D125A3D12461D12DA38
:20620000B2303036124B9464074C70059015D0F01FAE07EEFD3395E0FCC364809480401442
:20622000124CBEE0FB74CB2DF58274153CF583EBF01E80DF9015CA742DF0202D037F0022FE
:20624000124B21123C0D228F339010F5E0F5347535FFE4F536753736D22C754E017B0E12EC
:20626000660D7FE87E0312D6AF7F007E007D7A7C44126615300B051265F580077D387FA2E2
:20628000128CD77F011297D7901075E0704C12452612468412A47512459CC004C005C00612
:2062A000C00790159012459FD003D002D001D0001238BF12B53C124E6012D43F7D89124D50
:2062C00020124558500F7D77124D2012455860054003D38001C392270536202707E5361240
:2062E0004F8A409F2027030265F4D20F7F0212B910E4FF12D67D124BCA126615300B137F3B
:206300000512D82C1266031265F512479A12B87180077D387FA2128CD7E53364037011F586
:206320003CF53B753A20753941754E017B038011753CCD753BCC753A4C753940754E017B3E
:206340000412660D126621AF3312D92C922720270302643C12452612468412A4751250692E
:20636000124770123AB91296CFE4FBFA793478431239B07BDB7A0F79497840123AB990119D
:206380006D124191200B030264167552FF75535275545A124E6612464D12451F125A3D1263
:2063A000451F302C087555017D6EE48005E4F5557D6EFFFE1291F0B22CE5336403701D1251
:2063C0004E6612DBF57B9A7A997999783E123B5660054003D38001C39228801B124E6612A8
:2063E000DBF57BCD7ACC794C783E123B5660054003D38001C392283028067E1F7F56800454
:206400007E1E7FAE7567D475684E7569017B187D1C12B8718026D2287552FF755352755449
:2064200069124E6612464D12451F125A3D12506F12451F12CEA112451F12B12612BD238FC1
:206440003512458A64054E600FEF64044E6003026347202803026347EF64054E700DC20F61
:2064600012473512CD80AF3402D7D2300B0312D773754E017B0CAD377FFF12D47EE4FF1201
:20648000C462E4F538E538124BC24003026594AF3812D7D2300B0DA20A922D7B017D14E405
:2064A000FF129B2E126621C22DAF3312C05FC22D12BA47922A12662DD22D12BA47922B3005
:2064C0002A06302B03D38001C39227302758124526756A01756B17756C76756D01756E1727
:2064E000756F7A12469612A47512662DC22D12BA47922AD22D12BA47922B302A06302B0335
:20650000D38001C3922730271D124526756A01756B17756C7E756D01756E17756F821246E9
:206520009612A4758019126603754E017B17AD377FFF12D47E7FD07E0712D6AF026594E51F
:206540003804FF12C46290177A1249CB90177E12491B901782124545756A01756B17756C69
:2065600086756D01756E17756F8A90177612415912A475901786124159E538124DC31241EB
:206580009190178A124159E5381249A91241910538026485302746300B0CAD377FE47EFFB8
:2065A00012BFD912DA29754E017B05AD377FE412D47E12BD238F3512458A64054E6006EF8A
:2065C00064044E70EDEF64054E7003D38001C39229E5332403FFA229922D12852DC20FC29E
:2065E0002D7F0112C05FE4FFFE12DBE7AF3412D7D212C88222A20A922D7B017D14E4FF127F
:206600009B2E22AD377FE47EFF12BFD922AD377FE412D47E2212D8B09010F5EFF012D7D269
:2066200022AF3CAE3BAD3AAC3912CD8022C22D7F0112C05F22C224D225D226E4F52D7D38C5
:206640007FA2128CD71269E9124CF112A37612D53612BD238F2A052DD3E52D9409748094C2
:20666000804005E4F52DD226AF2A124D85500302695CE52A1241F668ED0068F20268F70315
:2066800068FD04690605690A06690E07691208691909691D0A69240B69440C69570D670BF8
:2066A0000E67190F66EC1066E71166F11266FB1366F71467031567701667BA1C67CF1D67CC
:2066C000F11E67FA1F682B20684D21684D22684D23684D24685525686E2668C02768CA2893
:2066E00068D8290000695AC22502695AD22502695A12D6E102695AD2178002C21712AFBDB6
:2067000002695AB20712D53602695A1269C28F2C12D2611269E902695A1247F7600DEF64A3
:20672000024E6007124A87D221803CEF64034E7003D38001C39221901773E07002A3E070D0
:206740000612CCB5124FE21269C2901773EEF0A3EFF0202112124C0D7C007D64123EE690C5
:206760001773EEF0A3EFF0124C0D12BC0302695A124C1612D2AA124C20124EC8905581120E
:2067800041811238BF12455560084006905581124C1D9054AD12416512455550069054AD17
:2067A000124C1D12479412D8B09010F5EFF012D7D2E4FDFF128CD702695A124C1612D2AA8C
:2067C000124670124CA212466D12D94E02695A7BFF7A5179CD7555017D327F0A7E0012917F
:2067E000F07FD07E0712D6AFE4F58475EF1002695A7BFF7A5879F70268D21269DF8F2CEFAC
:206800006402901159700912419D0001C200800712419D000025807B017A117959124B1882
:206820007F1C1246B312C8F202695A753A047539607538017537007E0012475912D0977BE2
:20684000FF7A59790412B126D21602695AAF2A12A66402695A1269DF8F2C852C76C2301259
:20686000475712C1E690146AE52CF002695A20160E7BFF7A59790D12B126D2B702695AC2DD
:2068800016E4F532F52B124C26F530052B124C261269CC7F0112698C1269CC7F0312698CBC
:2068A000F5317B007A00793012B3338F2A852A76C2307F027E607D017C0012C1E602695A75
:2068C000C20C7BFF7A5979218008D20C7BFF7A59792812B12602695A124C1612B3338F2CDA
:2068E000EF7005C21002695AD21002695A12D74380681286CB8063C2197F028004C2197F62
:206900000312624780547F01800A7F0280067F0380027F0412766F8041C2278002D227121F
:2069200098FC8036124C1612B3338E2E8F2F7A00792E1246A712D5E0901543E52EF0A3E5CD
:206940002FF08016124C1612B3338F2C901619E52CF0127F778003127D5ED22620250302E1
:2069600066517F011297D7127B1C2026030266517D387FA2128CD7124CF112A3767D7E7F76
:206980000412AF0012D536C2260266517E607D017C0012C1E6052B052BAF2BEF3395E0FE14
:2069A00074392FF58274173EF583E0F530052BAF2BEF3395E0FE74392FF58274173EF5830B
:2069C000E0227B017A17793912B33322F5317B007A00793012B3338F2A852A76C230227BB3
:2069E000017A17793912B333227D7E7F0412AF0022C22375FFDE75FFADA28650028001C3C2
:206A00009202A28750028001C3920312DA5B300336C22F7F211246B312C8108F16EF124C66
:206A20008C4018E4F516FB7A007916F544754501C2287F217EFCFDFC12D5E012D64AAD16D2
